:100000000040002009C200005F8900004B8C000006
:10001000D78D00001F8E00009B8F000069CA000072
:1000200069CA000069CA000069CA00005F92000046
:10003000C396000069CA00006BA600008FA60000EE
:10004000A3A80000E16F0000ED6F0000F96F000051
:1000500005700000117000001D7000002970000084
:1000600035700000417000005D910000AFA80000F5
:10007000C7A80000FFA900009F6400002FAA00008D
:100080006BAB0000A7AB0000CBAB000013AE0000D1
:100090002FAE0000D3AF0000FBB0000017B100008E
:1000A00067C200007DC50000EFC6000043C8000025
:1000B0003DCA00003FCA000041CA0000F5800000B0
:1000C0002181000043CA000045CA000047CA000061
:1000D00049CA00004BCA00004DCA00004FCA0000C8
:1000E00051CA000053CA000055CA0000A1BA00005E
:1000F00069CA000057CA000059CA00004D700000CC
:100100005970000069CA00007F7E0000237F000054
:100110008F7F00005B8000005BCA00005DCA0000AA
:100120005FCA000061CA000063CA000065CA00001F
:0401300067CA00009A
:1008000000000100020003000000010003000400DA
:1008100000000100040005000000010005000600C2
:1008200000000100060007000000010007000800AA
:1008300000000100080009000000010009000A0092
:10084000000001000A000B00000001000B000C007A
:10085000000001000C000D00000001000D000E0062
:10086000000001000E000F00000001000F0010004A
:100870000000010010001100000001001100120032
:10088000000001001200130000000100130014001A
:100890000000010014001500000001001500160002
:1008A00000000100160017000000010017001800EA
:1008B00000000100180019000000010019001A00D2
:1008C000000001001A001B00000001001B001C00BA
:1008D000000001001C001D00000001001D001E00A2
:1008E000000001001E001F000100020003000400C0
:1008F00001000200040005000100020005000600DE
:1009000001000200060007000100020007000800C5
:1009100001000200080009000100020009000A00AD
:10092000010002000A000B00010002000B000C0095
:10093000010002000C000D00010002000D000E007D
:10094000010002000E000F00010002000F00100065
:10095000010002001000110001000200110012004D
:100960000100020012001300010002001300140035
:10097000010002001400150001000200150016001D
:100980000100020016001700010002001700180005
:1009900001000200180019000100020019001A00ED
:1009A000010002001A001B00010002001B001C00D5
:1009B000010002001C001D00010002001D001E00BD
:1009C000010002001E001F00010002001F000000C5
:1009D0000200030000000100020003000400050003
:1009E00002000300050006000200030006000700E5
:1009F00002000300070008000200030008000900CD
:100A00000200030009000A00020003000A000B00B4
:100A1000020003000B000C00020003000C000D009C
:100A2000020003000D000E00020003000E000F0084
:100A3000020003000F00100002000300100011006C
:100A40000200030011001200020003001200130054
:100A5000020003001300140002000300140015003C
:100A60000200030015001600020003001600170024
:100A7000020003001700180002000300180019000C
:100A80000200030019001A00020003001A001B00F4
:100A9000020003001B001C00020003001C001D00DC
:100AA000020003001D001E00020003001E001F00C4
:100AB000020003001F00000003000400000001000A
:100AC000030004000100020003000400050006000A
:100AD00003000400060007000300040007000800EC
:100AE00003000400080009000300040009000A00D4
:100AF000030004000A000B00030004000B000C00BC
:100B0000030004000C000D00030004000D000E00A3
:100B1000030004000E000F00030004000F0010008B
:100B20000300040010001100030004001100120073
:100B3000030004001200130003000400130014005B
:100B40000300040014001500030004001500160043
:100B5000030004001600170003000400170018002B
:100B600003000400180019000300040019001A0013
:100B7000030004001A001B00030004001B001C00FB
:100B8000030004001C001D00030004001D001E00E3
:100B9000030004001E001F00030004001F000000EB
:100BA000040005000000010004000500010002002F
:100BB0000400050002000300040005000600070011
:100BC00004000500070008000400050008000900F3
:100BD0000400050009000A00040005000A000B00DB
:100BE000040005000B000C00040005000C000D00C3
:100BF000040005000D000E00040005000E000F00AB
:100C0000040005000F001000040005001000110092
:100C1000040005001100120004000500120013007A
:100C20000400050013001400040005001400150062
:100C3000040005001500160004000500160017004A
:100C40000400050017001800040005001800190032
:100C50000400050019001A00040005001A001B001A
:100C6000040005001B001C00040005001C001D0002
:100C7000040005001D001E00040005001E001F00EA
:100C8000040005001F000000050006000000010030
:100C90000500060001000200050006000200030036
:100CA0000500060003000400050006000700080018
:100CB00005000600080009000500060009000A00FA
:100CC000050006000A000B00050006000B000C00E2
:100CD000050006000C000D00050006000D000E00CA
:100CE000050006000E000F00050006000F001000B2
:100CF000050006001000110005000600110012009A
:100D00000500060012001300050006001300140081
:100D10000500060014001500050006001500160069
:100D20000500060016001700050006001700180051
:100D300005000600180019000500060019001A0039
:100D4000050006001A001B00050006001B001C0021
:100D5000050006001C001D00050006001D001E0009
:100D6000050006001E001F00050006001F00000011
:100D70000600070000000100060007000100020055
:100D8000060007000200030006000700030004003D
:100D9000060007000400050006000700080009001F
:100DA0000600070009000A00060007000A000B0001
:100DB000060007000B000C00060007000C000D00E9
:100DC000060007000D000E00060007000E000F00D1
:100DD000060007000F0010000600070010001100B9
:100DE00006000700110012000600070012001300A1
:100DF0000600070013001400060007001400150089
:100E00000600070015001600060007001600170070
:100E10000600070017001800060007001800190058
:100E20000600070019001A00060007001A001B0040
:100E3000060007001B001C00060007001C001D0028
:100E4000060007001D001E00060007001E001F0010
:100E5000060007001F000000070008000000010056
:100E6000070008000100020007000800020003005C
:100E70000700080003000400070008000400050044
:100E800007000800050006000700080009000A0026
:100E9000070008000A000B00070008000B000C0008
:100EA000070008000C000D00070008000D000E00F0
:100EB000070008000E000F00070008000F001000D8
:100EC00007000800100011000700080011001200C0
:100ED00007000800120013000700080013001400A8
:100EE0000700080014001500070008001500160090
:100EF0000700080016001700070008001700180078
:100F000007000800180019000700080019001A005F
:100F1000070008001A001B00070008001B001C0047
:100F2000070008001C001D00070008001D001E002F
:100F3000070008001E001F00070008001F00000037
:100F4000080009000000010008000900010002007B
:100F50000800090002000300080009000300040063
:100F6000080009000400050008000900050006004B
:100F70000800090006000700080009000A000B002D
:100F8000080009000B000C00080009000C000D000F
:100F9000080009000D000E00080009000E000F00F7
:100FA000080009000F0010000800090010001100DF
:100FB00008000900110012000800090012001300C7
:100FC00008000900130014000800090014001500AF
:100FD0000800090015001600080009001600170097
:100FE000080009001700180008000900180019007F
:100FF0000800090019001A00080009001A001B0067
:10100000080009001B001C00080009001C001D004E
:10101000080009001D001E00080009001E001F0036
:10102000080009001F00000009000A00000001007C
:1010300009000A000100020009000A000200030082
:1010400009000A000300040009000A00040005006A
:1010500009000A000500060009000A000600070052
:1010600009000A000700080009000A000B000C0034
:1010700009000A000C000D0009000A000D000E0016
:1010800009000A000E000F0009000A000F001000FE
:1010900009000A001000110009000A0011001200E6
:1010A00009000A001200130009000A0013001400CE
:1010B00009000A001400150009000A0015001600B6
:1010C00009000A001600170009000A00170018009E
:1010D00009000A001800190009000A0019001A0086
:1010E00009000A001A001B0009000A001B001C006E
:1010F00009000A001C001D0009000A001D001E0056
:1011000009000A001E001F0009000A001F0000005D
:101110000A000B00000001000A000B0001000200A1
:101120000A000B00020003000A000B000300040089
:101130000A000B00040005000A000B000500060071
:101140000A000B00060007000A000B000700080059
:101150000A000B00080009000A000B000C000D003B
:101160000A000B000D000E000A000B000E000F001D
:101170000A000B000F0010000A000B001000110005
:101180000A000B00110012000A000B0012001300ED
:101190000A000B00130014000A000B0014001500D5
:1011A0000A000B00150016000A000B0016001700BD
:1011B0000A000B00170018000A000B0018001900A5
:1011C0000A000B0019001A000A000B001A001B008D
:1011D0000A000B001B001C000A000B001C001D0075
:1011E0000A000B001D001E000A000B001E001F005D
:1011F0000A000B001F0000000B000C0000000100A3
:101200000B000C00010002000B000C0002000300A8
:101210000B000C00030004000B000C000400050090
:101220000B000C00050006000B000C000600070078
:101230000B000C00070008000B000C000800090060
:101240000B000C0009000A000B000C000D000E0042
:101250000B000C000E000F000B000C000F00100024
:101260000B000C00100011000B000C00110012000C
:101270000B000C00120013000B000C0013001400F4
:101280000B000C00140015000B000C0015001600DC
:101290000B000C00160017000B000C0017001800C4
:1012A0000B000C00180019000B000C0019001A00AC
:1012B0000B000C001A001B000B000C001B001C0094
:1012C0000B000C001C001D000B000C001D001E007C
:1012D0000B000C001E001F000B000C001F00000084
:1012E0000C000D00000001000C000D0001000200C8
:1012F0000C000D00020003000C000D0003000400B0
:101300000C000D00040005000C000D000500060097
:101310000C000D00060007000C000D00070008007F
:101320000C000D00080009000C000D0009000A0067
:101330000C000D000A000B000C000D000E000F0049
:101340000C000D000F0010000C000D00100011002B
:101350000C000D00110012000C000D001200130013
:101360000C000D00130014000C000D0014001500FB
:101370000C000D00150016000C000D0016001700E3
:101380000C000D00170018000C000D0018001900CB
:101390000C000D0019001A000C000D001A001B00B3
:1013A0000C000D001B001C000C000D001C001D009B
:1013B0000C000D001D001E000C000D001E001F0083
:1013C0000C000D001F0000000D000E0000000100C9
:1013D0000D000E00010002000D000E0002000300CF
:1013E0000D000E00030004000D000E0004000500B7
:1013F0000D000E00050006000D000E00060007009F
:101400000D000E00070008000D000E000800090086
:101410000D000E0009000A000D000E000A000B006E
:101420000D000E000B000C000D000E000F00100050
:101430000D000E00100011000D000E001100120032
:101440000D000E00120013000D000E00130014001A
:101450000D000E00140015000D000E001500160002
:101460000D000E00160017000D000E0017001800EA
:101470000D000E00180019000D000E0019001A00D2
:101480000D000E001A001B000D000E001B001C00BA
:101490000D000E001C001D000D000E001D001E00A2
:1014A0000D000E001E001F000D000E001F000000AA
:1014B0000E000F00000001000E000F0001000200EE
:1014C0000E000F00020003000E000F0003000400D6
:1014D0000E000F00040005000E000F0005000600BE
:1014E0000E000F00060007000E000F0007000800A6
:1014F0000E000F00080009000E000F0009000A008E
:101500000E000F000A000B000E000F000B000C0075
:101510000E000F000C000D000E000F001000110057
:101520000E000F00110012000E000F001200130039
:101530000E000F00130014000E000F001400150021
:101540000E000F00150016000E000F001600170009
:101550000E000F00170018000E000F0018001900F1
:101560000E000F0019001A000E000F001A001B00D9
:101570000E000F001B001C000E000F001C001D00C1
:101580000E000F001D001E000E000F001E001F00A9
:101590000E000F001F0000000F00100000000100EF
:1015A0000F001000010002000F00100002000300F5
:1015B0000F001000030004000F00100004000500DD
:1015C0000F001000050006000F00100006000700C5
:1015D0000F001000070008000F00100008000900AD
:1015E0000F00100009000A000F0010000A000B0095
:1015F0000F0010000B000C000F0010000C000D007D
:101600000F0010000D000E000F001000110012005E
:101610000F001000120013000F0010001300140040
:101620000F001000140015000F0010001500160028
:101630000F001000160017000F0010001700180010
:101640000F001000180019000F00100019001A00F8
:101650000F0010001A001B000F0010001B001C00E0
:101660000F0010001C001D000F0010001D001E00C8
:101670000F0010001E001F000F0010001F000000D0
:101680001000110000000100100011000100020014
:1016900010001100020003001000110003000400FC
:1016A00010001100040005001000110005000600E4
:1016B00010001100060007001000110007000800CC
:1016C00010001100080009001000110009000A00B4
:1016D000100011000A000B00100011000B000C009C
:1016E000100011000C000D00100011000D000E0084
:1016F000100011000E000F00100011001200130066
:101700001000110013001400100011001400150047
:10171000100011001500160010001100160017002F
:101720001000110017001800100011001800190017
:101730001000110019001A00100011001A001B00FF
:10174000100011001B001C00100011001C001D00E7
:10175000100011001D001E00100011001E001F00CF
:10176000100011001F000000110012000000010015
:10177000110012000100020011001200020003001B
:101780001100120003000400110012000400050003
:1017900011001200050006001100120006000700EB
:1017A00011001200070008001100120008000900D3
:1017B0001100120009000A00110012000A000B00BB
:1017C000110012000B000C00110012000C000D00A3
:1017D000110012000D000E00110012000E000F008B
:1017E000110012000F00100011001200130014006D
:1017F000110012001400150011001200150016004F
:101800001100120016001700110012001700180036
:1018100011001200180019001100120019001A001E
:10182000110012001A001B00110012001B001C0006
:10183000110012001C001D00110012001D001E00EE
:10184000110012001E001F00110012001F000000F6
:10185000120013000000010012001300010002003A
:101860001200130002000300120013000300040022
:10187000120013000400050012001300050006000A
:1018800012001300060007001200130007000800F2
:1018900012001300080009001200130009000A00DA
:1018A000120013000A000B00120013000B000C00C2
:1018B000120013000C000D00120013000D000E00AA
:1018C000120013000E000F00120013000F00100092
:1018D0001200130010001100120013001400150074
:1018E0001200130015001600120013001600170056
:1018F000120013001700180012001300180019003E
:101900001200130019001A00120013001A001B0025
:10191000120013001B001C00120013001C001D000D
:10192000120013001D001E00120013001E001F00F5
:10193000120013001F00000013001400000001003B
:101940001300140001000200130014000200030041
:101950001300140003000400130014000400050029
:101960001300140005000600130014000600070011
:1019700013001400070008001300140008000900F9
:101980001300140009000A00130014000A000B00E1
:10199000130014000B000C00130014000C000D00C9
:1019A000130014000D000E00130014000E000F00B1
:1019B000130014000F001000130014001000110099
:1019C000130014001100120013001400150016007B
:1019D000130014001600170013001400170018005D
:1019E00013001400180019001300140019001A0045
:1019F000130014001A001B00130014001B001C002D
:101A0000130014001C001D00130014001D001E0014
:101A1000130014001E001F00130014001F0000001C
:101A20001400150000000100140015000100020060
:101A30001400150002000300140015000300040048
:101A40001400150004000500140015000500060030
:101A50001400150006000700140015000700080018
:101A600014001500080009001400150009000A0000
:101A7000140015000A000B00140015000B000C00E8
:101A8000140015000C000D00140015000D000E00D0
:101A9000140015000E000F00140015000F001000B8
:101AA00014001500100011001400150011001200A0
:101AB0001400150012001300140015001600170082
:101AC0001400150017001800140015001800190064
:101AD0001400150019001A00140015001A001B004C
:101AE000140015001B001C00140015001C001D0034
:101AF000140015001D001E00140015001E001F001C
:101B0000140015001F000000150016000000010061
:101B10001500160001000200150016000200030067
:101B2000150016000300040015001600040005004F
:101B30001500160005000600150016000600070037
:101B4000150016000700080015001600080009001F
:101B50001500160009000A00150016000A000B0007
:101B6000150016000B000C00150016000C000D00EF
:101B7000150016000D000E00150016000E000F00D7
:101B8000150016000F0010001500160010001100BF
:101B900015001600110012001500160012001300A7
:101BA0001500160013001400150016001700180089
:101BB00015001600180019001500160019001A006B
:101BC000150016001A001B00150016001B001C0053
:101BD000150016001C001D00150016001D001E003B
:101BE000150016001E001F00150016001F00000043
:101BF0001600170000000100160017000100020087
:101C0000160017000200030016001700030004006E
:101C10001600170004000500160017000500060056
:101C2000160017000600070016001700070008003E
:101C300016001700080009001600170009000A0026
:101C4000160017000A000B00160017000B000C000E
:101C5000160017000C000D00160017000D000E00F6
:101C6000160017000E000F00160017000F001000DE
:101C700016001700100011001600170011001200C6
:101C800016001700120013001600170013001400AE
:101C90001600170014001500160017001800190090
:101CA0001600170019001A00160017001A001B0072
:101CB000160017001B001C00160017001C001D005A
:101CC000160017001D001E00160017001E001F0042
:101CD000160017001F000000170018000000010088
:101CE000170018000100020017001800020003008E
:101CF0001700180003000400170018000400050076
:101D0000170018000500060017001800060007005D
:101D10001700180007000800170018000800090045
:101D20001700180009000A00170018000A000B002D
:101D3000170018000B000C00170018000C000D0015
:101D4000170018000D000E00170018000E000F00FD
:101D5000170018000F0010001700180010001100E5
:101D600017001800110012001700180012001300CD
:101D700017001800130014001700180014001500B5
:101D800017001800150016001700180019001A0097
:101D9000170018001A001B00170018001B001C0079
:101DA000170018001C001D00170018001D001E0061
:101DB000170018001E001F00170018001F00000069
:101DC00018001900000001001800190001000200AD
:101DD0001800190002000300180019000300040095
:101DE000180019000400050018001900050006007D
:101DF0001800190006000700180019000700080065
:101E000018001900080009001800190009000A004C
:101E1000180019000A000B00180019000B000C0034
:101E2000180019000C000D00180019000D000E001C
:101E3000180019000E000F00180019000F00100004
:101E400018001900100011001800190011001200EC
:101E500018001900120013001800190013001400D4
:101E600018001900140015001800190015001600BC
:101E70001800190016001700180019001A001B009E
:101E8000180019001B001C00180019001C001D0080
:101E9000180019001D001E00180019001E001F0068
:101EA000180019001F00000019001A0000000100AE
:101EB00019001A000100020019001A0002000300B4
:101EC00019001A000300040019001A00040005009C
:101ED00019001A000500060019001A000600070084
:101EE00019001A000700080019001A00080009006C
:101EF00019001A0009000A0019001A000A000B0054
:101F000019001A000B000C0019001A000C000D003B
:101F100019001A000D000E0019001A000E000F0023
:101F200019001A000F00100019001A00100011000B
:101F300019001A001100120019001A0012001300F3
:101F400019001A001300140019001A0014001500DB
:101F500019001A001500160019001A0016001700C3
:101F600019001A001700180019001A001B001C00A5
:101F700019001A001C001D0019001A001D001E0087
:101F800019001A001E001F0019001A001F0000008F
:101F90001A001B00000001001A001B0001000200D3
:101FA0001A001B00020003001A001B0003000400BB
:101FB0001A001B00040005001A001B0005000600A3
:101FC0001A001B00060007001A001B00070008008B
:101FD0001A001B00080009001A001B0009000A0073
:101FE0001A001B000A000B001A001B000B000C005B
:101FF0001A001B000C000D001A001B000D000E0043
:102000001A001B000E000F001A001B000F0010002A
:102010001A001B00100011001A001B001100120012
:102020001A001B00120013001A001B0013001400FA
:102030001A001B00140015001A001B0015001600E2
:102040001A001B00160017001A001B0017001800CA
:102050001A001B00180019001A001B001C001D00AC
:102060001A001B001D001E001A001B001E001F008E
:102070001A001B001F0000001B001C0000000100D4
:102080001B001C00010002001B001C0002000300DA
:102090001B001C00030004001B001C0004000500C2
:1020A0001B001C00050006001B001C0006000700AA
:1020B0001B001C00070008001B001C000800090092
:1020C0001B001C0009000A001B001C000A000B007A
:1020D0001B001C000B000C001B001C000C000D0062
:1020E0001B001C000D000E001B001C000E000F004A
:1020F0001B001C000F0010001B001C001000110032
:102100001B001C00110012001B001C001200130019
:102110001B001C00130014001B001C001400150001
:102120001B001C00150016001B001C0016001700E9
:102130001B001C00170018001B001C0018001900D1
:102140001B001C0019001A001B001C001D001E00B3
:102150001B001C001E001F001B001C001F000000B5
:102160001C001D00000001001C001D0001000200F9
:102170001C001D00020003001C001D0003000400E1
:102180001C001D00040005001C001D0005000600C9
:102190001C001D00060007001C001D0007000800B1
:1021A0001C001D00080009001C001D0009000A0099
:1021B0001C001D000A000B001C001D000B000C0081
:1021C0001C001D000C000D001C001D000D000E0069
:1021D0001C001D000E000F001C001D000F00100051
:1021E0001C001D00100011001C001D001100120039
:1021F0001C001D00120013001C001D001300140021
:102200001C001D00140015001C001D001500160008
:102210001C001D00160017001C001D0017001800F0
:102220001C001D00180019001C001D0019001A00D8
:102230001C001D001A001B001C001D001E001F00BA
:102240001C001D001F0000001D001E0000000100FA
:102250001D001E00010002001D001E000200030000
:102260001D001E00030004001D001E0004000500E8
:102270001D001E00050006001D001E0006000700D0
:102280001D001E00070008001D001E0008000900B8
:102290001D001E0009000A001D001E000A000B00A0
:1022A0001D001E000B000C001D001E000C000D0088
:1022B0001D001E000D000E001D001E000E000F0070
:1022C0001D001E000F0010001D001E001000110058
:1022D0001D001E00110012001D001E001200130040
:1022E0001D001E00130014001D001E001400150028
:1022F0001D001E00150016001D001E001600170010
:102300001D001E00170018001D001E0018001900F7
:102310001D001E0019001A001D001E001A001B00DF
:102320001D001E001B001C001D001E001F000000E1
:102330001E001F00000001001E001F00010002001F
:102340001E001F00020003001E001F000300040007
:102350001E001F00040005001E001F0005000600EF
:102360001E001F00060007001E001F0007000800D7
:102370001E001F00080009001E001F0009000A00BF
:102380001E001F000A000B001E001F000B000C00A7
:102390001E001F000C000D001E001F000D000E008F
:1023A0001E001F000E000F001E001F000F00100077
:1023B0001E001F00100011001E001F00110012005F
:1023C0001E001F00120013001E001F001300140047
:1023D0001E001F00140015001E001F00150016002F
:1023E0001E001F00160017001E001F001700180017
:1023F0001E001F00180019001E001F0019001A00FF
:102400001E001F001A001B001E001F001B001C00E6
:102410001E001F001C001D001F0000000100020024
:102420001F000000020003001F0000000300040062
:102430001F000000040005001F000000050006004A
:102440001F000000060007001F0000000700080032
:102450001F000000080009001F00000009000A001A
:102460001F0000000A000B001F0000000B000C0002
:102470001F0000000C000D001F0000000D000E00EA
:102480001F0000000E000F001F0000000F001000D2
:102490001F000000100011001F00000011001200BA
:1024A0001F000000120013001F00000013001400A2
:1024B0001F000000140015001F000000150016008A
:1024C0001F000000160017001F0000001700180072
:1024D0001F000000180019001F00000019001A005A
:1024E0001F0000001A001B001F0000001B001C0042
:1024F0001F0000001C001D001F0000001D001E002A
:1025000000001000020001000000100003000200A3
:10251000000010000400030000001000050004008B
:102520000000100006000500000010000700060073
:10253000000010000800070000001000090008005B
:10254000000010000A000900000010000B000A0043
:10255000000010000C000B00000010000D000C002B
:10256000000010000E000D00000010000F000E0013
:1025700000001000120011000000100013001200F3
:1025800000001000140013000000100015001400DB
:1025900000001000160015000000100017001600C3
:1025A00000001000180017000000100019001800AB
:1025B000000010001A001900000010001B001A0093
:1025C000000010001C001B00000010001D001C007B
:1025D000000010001E001D00000010001F001E0063
:1025E00001001100030002000100110004000300BB
:1025F00001001100050004000100110006000500A3
:10260000010011000700060001001100080007008A
:102610000100110009000800010011000A00090072
:10262000010011000B000A00010011000C000B005A
:10263000010011000D000C00010011000E000D0042
:10264000010011000F000E000100110010000F002A
:10265000010011001300120001001100140013000A
:1026600001001100150014000100110016001500F2
:1026700001001100170016000100110018001700DA
:102680000100110019001800010011001A001900C2
:10269000010011001B001A00010011001C001B00AA
:1026A000010011001D001C00010011001E001D0092
:1026B000010011001F001E000100110000001F009A
:1026C00002001200010000000200120004000300DA
:1026D00002001200050004000200120006000500BE
:1026E00002001200070006000200120008000700A6
:1026F0000200120009000800020012000A0009008E
:10270000020012000B000A00020012000C000B0075
:10271000020012000D000C00020012000E000D005D
:10272000020012000F000E000200120010000F0045
:102730000200120011001000020012001400130029
:10274000020012001500140002001200160015000D
:1027500002001200170016000200120018001700F5
:102760000200120019001800020012001A001900DD
:10277000020012001B001A00020012001C001B00C5
:10278000020012001D001C00020012001E001D00AD
:10279000020012001F001E000200120000001F00B5
:1027A00003001300010000000300130002000100F9
:1027B00003001300050004000300130006000500D9
:1027C00003001300070006000300130008000700C1
:1027D0000300130009000800030013000A000900A9
:1027E000030013000B000A00030013000C000B0091
:1027F000030013000D000C00030013000E000D0079
:10280000030013000F000E000300130010000F0060
:102810000300130011001000030013001200110048
:102820000300130015001400030013001600150028
:102830000300130017001600030013001800170010
:102840000300130019001800030013001A001900F8
:10285000030013001B001A00030013001C001B00E0
:10286000030013001D001C00030013001E001D00C8
:10287000030013001F001E000300130000001F00D0
:102880000400140001000000040014000200010014
:1028900004001400030002000400140006000500F8
:1028A00004001400070006000400140008000700DC
:1028B0000400140009000800040014000A000900C4
:1028C000040014000B000A00040014000C000B00AC
:1028D000040014000D000C00040014000E000D0094
:1028E000040014000F000E000400140010000F007C
:1028F0000400140011001000040014001200110064
:102900000400140013001200040014001600150047
:10291000040014001700160004001400180017002B
:102920000400140019001800040014001A00190013
:10293000040014001B001A00040014001C001B00FB
:10294000040014001D001C00040014001E001D00E3
:10295000040014001F001E000400140000001F00EB
:10296000050015000100000005001500020001002F
:102970000500150003000200050015000400030017
:1029800005001500070006000500150008000700F7
:102990000500150009000800050015000A000900DF
:1029A000050015000B000A00050015000C000B00C7
:1029B000050015000D000C00050015000E000D00AF
:1029C000050015000F000E000500150010000F0097
:1029D000050015001100100005001500120011007F
:1029E0000500150013001200050015001400130067
:1029F0000500150017001600050015001800170047
:102A00000500150019001800050015001A0019002E
:102A1000050015001B001A00050015001C001B0016
:102A2000050015001D001C00050015001E001D00FE
:102A3000050015001F001E000500150000001F0006
:102A4000060016000100000006001600020001004A
:102A50000600160003000200060016000400030032
:102A60000600160005000400060016000800070016
:102A70000600160009000800060016000A000900FA
:102A8000060016000B000A00060016000C000B00E2
:102A9000060016000D000C00060016000E000D00CA
:102AA000060016000F000E000600160010000F00B2
:102AB000060016001100100006001600120011009A
:102AC0000600160013001200060016001400130082
:102AD0000600160015001400060016001800170066
:102AE0000600160019001800060016001A0019004A
:102AF000060016001B001A00060016001C001B0032
:102B0000060016001D001C00060016001E001D0019
:102B1000060016001F001E000600160000001F0021
:102B20000700170001000000070017000200010065
:102B3000070017000300020007001700040003004D
:102B40000700170005000400070017000600050035
:102B50000700170009000800070017000A00090015
:102B6000070017000B000A00070017000C000B00FD
:102B7000070017000D000C00070017000E000D00E5
:102B8000070017000F000E000700170010000F00CD
:102B900007001700110010000700170012001100B5
:102BA000070017001300120007001700140013009D
:102BB0000700170015001400070017001600150085
:102BC0000700170019001800070017001A00190065
:102BD000070017001B001A00070017001C001B004D
:102BE000070017001D001C00070017001E001D0035
:102BF000070017001F001E000700170000001F003D
:102C00000800180001000000080018000200010080
:102C10000800180003000200080018000400030068
:102C20000800180005000400080018000600050050
:102C30000800180007000600080018000A00090034
:102C4000080018000B000A00080018000C000B0018
:102C5000080018000D000C00080018000E000D0000
:102C6000080018000F000E000800180010000F00E8
:102C700008001800110010000800180012001100D0
:102C800008001800130012000800180014001300B8
:102C900008001800150014000800180016001500A0
:102CA0000800180017001600080018001A00190084
:102CB000080018001B001A00080018001C001B0068
:102CC000080018001D001C00080018001E001D0050
:102CD000080018001F001E000800180000001F0058
:102CE000090019000100000009001900020001009C
:102CF0000900190003000200090019000400030084
:102D0000090019000500040009001900060005006B
:102D10000900190007000600090019000800070053
:102D2000090019000B000A00090019000C000B0033
:102D3000090019000D000C00090019000E000D001B
:102D4000090019000F000E000900190010000F0003
:102D500009001900110010000900190012001100EB
:102D600009001900130012000900190014001300D3
:102D700009001900150014000900190016001500BB
:102D800009001900170016000900190018001700A3
:102D9000090019001B001A00090019001C001B0083
:102DA000090019001D001C00090019001E001D006B
:102DB000090019001F001E000900190000001F0073
:102DC0000A001A00010000000A001A0002000100B7
:102DD0000A001A00030002000A001A00040003009F
:102DE0000A001A00050004000A001A000600050087
:102DF0000A001A00070006000A001A00080007006F
:102E00000A001A00090008000A001A000C000B0052
:102E10000A001A000D000C000A001A000E000D0036
:102E20000A001A000F000E000A001A0010000F001E
:102E30000A001A00110010000A001A001200110006
:102E40000A001A00130012000A001A0014001300EE
:102E50000A001A00150014000A001A0016001500D6
:102E60000A001A00170016000A001A0018001700BE
:102E70000A001A00190018000A001A001C001B00A2
:102E80000A001A001D001C000A001A001E001D0086
:102E90000A001A001F001E000A001A0000001F008E
:102EA0000B001B00010000000B001B0002000100D2
:102EB0000B001B00030002000B001B0004000300BA
:102EC0000B001B00050004000B001B0006000500A2
:102ED0000B001B00070006000B001B00080007008A
:102EE0000B001B00090008000B001B000A00090072
:102EF0000B001B000D000C000B001B000E000D0052
:102F00000B001B000F000E000B001B0010000F0039
:102F10000B001B00110010000B001B001200110021
:102F20000B001B00130012000B001B001400130009
:102F30000B001B00150014000B001B0016001500F1
:102F40000B001B00170016000B001B0018001700D9
:102F50000B001B00190018000B001B001A001900C1
:102F60000B001B001D001C000B001B001E001D00A1
:102F70000B001B001F001E000B001B0000001F00A9
:102F80000C001C00010000000C001C0002000100ED
:102F90000C001C00030002000C001C0004000300D5
:102FA0000C001C00050004000C001C0006000500BD
:102FB0000C001C00070006000C001C0008000700A5
:102FC0000C001C00090008000C001C000A0009008D
:102FD0000C001C000B000A000C001C000E000D0071
:102FE0000C001C000F000E000C001C0010000F0055
:102FF0000C001C00110010000C001C00120011003D
:103000000C001C00130012000C001C001400130024
:103010000C001C00150014000C001C00160015000C
:103020000C001C00170016000C001C0018001700F4
:103030000C001C00190018000C001C001A001900DC
:103040000C001C001B001A000C001C001E001D00C0
:103050000C001C001F001E000C001C0000001F00C4
:103060000D001D00010000000D001D000200010008
:103070000D001D00030002000D001D0004000300F0
:103080000D001D00050004000D001D0006000500D8
:103090000D001D00070006000D001D0008000700C0
:1030A0000D001D00090008000D001D000A000900A8
:1030B0000D001D000B000A000D001D000C000B0090
:1030C0000D001D000F000E000D001D0010000F0070
:1030D0000D001D00110010000D001D001200110058
:1030E0000D001D00130012000D001D001400130040
:1030F0000D001D00150014000D001D001600150028
:103100000D001D00170016000D001D00180017000F
:103110000D001D00190018000D001D001A001900F7
:103120000D001D001B001A000D001D001C001B00DF
:103130000D001D001F001E000D001D0000001F00DF
:103140000E001E00010000000E001E000200010023
:103150000E001E00030002000E001E00040003000B
:103160000E001E00050004000E001E0006000500F3
:103170000E001E00070006000E001E0008000700DB
:103180000E001E00090008000E001E000A000900C3
:103190000E001E000B000A000E001E000C000B00AB
:1031A0000E001E000D000C000E001E0010000F008F
:1031B0000E001E00110010000E001E001200110073
:1031C0000E001E00130012000E001E00140013005B
:1031D0000E001E00150014000E001E001600150043
:1031E0000E001E00170016000E001E00180017002B
:1031F0000E001E00190018000E001E001A00190013
:103200000E001E001B001A000E001E001C001B00FA
:103210000E001E001D001C000E001E0000001F00FE
:103220000F001F00010000000F001F00020001003E
:103230000F001F00030002000F001F000400030026
:103240000F001F00050004000F001F00060005000E
:103250000F001F00070006000F001F0008000700F6
:103260000F001F00090008000F001F000A000900DE
:103270000F001F000B000A000F001F000C000B00C6
:103280000F001F000D000C000F001F000E000D00AE
:103290000F001F00110010000F001F00120011008E
:1032A0000F001F00130012000F001F001400130076
:1032B0000F001F00150014000F001F00160015005E
:1032C0000F001F00170016000F001F001800170046
:1032D0000F001F00190018000F001F001A0019002E
:1032E0000F001F001B001A000F001F001C001B0016
:1032F0000F001F001D001C000F001F001E001D00FE
:103300001000000002000100100000000300020095
:10331000100000000400030010000000050004007D
:103320001000000006000500100000000700060065
:10333000100000000800070010000000090008004D
:10334000100000000A000900100000000B000A0035
:10335000100000000C000B00100000000D000C001D
:10336000100000000E000D00100000000F000E0005
:1033700010000000120011001000000013001200E5
:1033800010000000140013001000000015001400CD
:1033900010000000160015001000000017001600B5
:1033A000100000001800170010000000190018009D
:1033B000100000001A001900100000001B001A0085
:1033C000100000001C001B00100000001D001C006D
:1033D000100000001E001D00100000001F001E0055
:1033E00011000100030002001100010004000300AD
:1033F0001100010005000400110001000600050095
:10340000110001000700060011000100080007007C
:103410001100010009000800110001000A00090064
:10342000110001000B000A00110001000C000B004C
:10343000110001000D000C00110001000E000D0034
:10344000110001000F000E001100010010000F001C
:1034500011000100130012001100010014001300FC
:1034600011000100150014001100010016001500E4
:1034700011000100170016001100010018001700CC
:103480001100010019001800110001001A001900B4
:10349000110001001B001A00110001001C001B009C
:1034A000110001001D001C00110001001E001D0084
:1034B000110001001F001E001100010000001F008C
:1034C00012000200010000001200020004000300CC
:1034D00012000200050004001200020006000500B0
:1034E0001200020007000600120002000800070098
:1034F0001200020009000800120002000A00090080
:10350000120002000B000A00120002000C000B0067
:10351000120002000D000C00120002000E000D004F
:10352000120002000F000E001200020010000F0037
:10353000120002001100100012000200140013001B
:1035400012000200150014001200020016001500FF
:1035500012000200170016001200020018001700E7
:103560001200020019001800120002001A001900CF
:10357000120002001B001A00120002001C001B00B7
:10358000120002001D001C00120002001E001D009F
:10359000120002001F001E001200020000001F00A7
:1035A00013000300010000001300030002000100EB
:1035B00013000300050004001300030006000500CB
:1035C00013000300070006001300030008000700B3
:1035D0001300030009000800130003000A0009009B
:1035E000130003000B000A00130003000C000B0083
:1035F000130003000D000C00130003000E000D006B
:10360000130003000F000E001300030010000F0052
:10361000130003001100100013000300120011003A
:10362000130003001500140013000300160015001A
:103630001300030017001600130003001800170002
:103640001300030019001800130003001A001900EA
:10365000130003001B001A00130003001C001B00D2
:10366000130003001D001C00130003001E001D00BA
:10367000130003001F001E001300030000001F00C2
:103680001400040001000000140004000200010006
:1036900014000400030002001400040006000500EA
:1036A00014000400070006001400040008000700CE
:1036B0001400040009000800140004000A000900B6
:1036C000140004000B000A00140004000C000B009E
:1036D000140004000D000C00140004000E000D0086
:1036E000140004000F000E001400040010000F006E
:1036F0001400040011001000140004001200110056
:103700001400040013001200140004001600150039
:10371000140004001700160014000400180017001D
:103720001400040019001800140004001A00190005
:10373000140004001B001A00140004001C001B00ED
:10374000140004001D001C00140004001E001D00D5
:10375000140004001F001E001400040000001F00DD
:103760001500050001000000150005000200010021
:103770001500050003000200150005000400030009
:1037800015000500070006001500050008000700E9
:103790001500050009000800150005000A000900D1
:1037A000150005000B000A00150005000C000B00B9
:1037B000150005000D000C00150005000E000D00A1
:1037C000150005000F000E001500050010000F0089
:1037D0001500050011001000150005001200110071
:1037E0001500050013001200150005001400130059
:1037F0001500050017001600150005001800170039
:103800001500050019001800150005001A00190020
:10381000150005001B001A00150005001C001B0008
:10382000150005001D001C00150005001E001D00F0
:10383000150005001F001E001500050000001F00F8
:10384000160006000100000016000600020001003C
:103850001600060003000200160006000400030024
:103860001600060005000400160006000800070008
:103870001600060009000800160006000A000900EC
:10388000160006000B000A00160006000C000B00D4
:10389000160006000D000C00160006000E000D00BC
:1038A000160006000F000E001600060010000F00A4
:1038B000160006001100100016000600120011008C
:1038C0001600060013001200160006001400130074
:1038D0001600060015001400160006001800170058
:1038E0001600060019001800160006001A0019003C
:1038F000160006001B001A00160006001C001B0024
:10390000160006001D001C00160006001E001D000B
:10391000160006001F001E001600060000001F0013
:103920001700070001000000170007000200010057
:10393000170007000300020017000700040003003F
:103940001700070005000400170007000600050027
:103950001700070009000800170007000A00090007
:10396000170007000B000A00170007000C000B00EF
:10397000170007000D000C00170007000E000D00D7
:10398000170007000F000E001700070010000F00BF
:1039900017000700110010001700070012001100A7
:1039A000170007001300120017000700140013008F
:1039B0001700070015001400170007001600150077
:1039C0001700070019001800170007001A00190057
:1039D000170007001B001A00170007001C001B003F
:1039E000170007001D001C00170007001E001D0027
:1039F000170007001F001E001700070000001F002F
:103A00001800080001000000180008000200010072
:103A1000180008000300020018000800040003005A
:103A20001800080005000400180008000600050042
:103A30001800080007000600180008000A00090026
:103A4000180008000B000A00180008000C000B000A
:103A5000180008000D000C00180008000E000D00F2
:103A6000180008000F000E001800080010000F00DA
:103A700018000800110010001800080012001100C2
:103A800018000800130012001800080014001300AA
:103A90001800080015001400180008001600150092
:103AA0001800080017001600180008001A00190076
:103AB000180008001B001A00180008001C001B005A
:103AC000180008001D001C00180008001E001D0042
:103AD000180008001F001E001800080000001F004A
:103AE000190009000100000019000900020001008E
:103AF0001900090003000200190009000400030076
:103B0000190009000500040019000900060005005D
:103B10001900090007000600190009000800070045
:103B2000190009000B000A00190009000C000B0025
:103B3000190009000D000C00190009000E000D000D
:103B4000190009000F000E001900090010000F00F5
:103B500019000900110010001900090012001100DD
:103B600019000900130012001900090014001300C5
:103B700019000900150014001900090016001500AD
:103B80001900090017001600190009001800170095
:103B9000190009001B001A00190009001C001B0075
:103BA000190009001D001C00190009001E001D005D
:103BB000190009001F001E001900090000001F0065
:103BC0001A000A00010000001A000A0002000100A9
:103BD0001A000A00030002001A000A000400030091
:103BE0001A000A00050004001A000A000600050079
:103BF0001A000A00070006001A000A000800070061
:103C00001A000A00090008001A000A000C000B0044
:103C10001A000A000D000C001A000A000E000D0028
:103C20001A000A000F000E001A000A0010000F0010
:103C30001A000A00110010001A000A0012001100F8
:103C40001A000A00130012001A000A0014001300E0
:103C50001A000A00150014001A000A0016001500C8
:103C60001A000A00170016001A000A0018001700B0
:103C70001A000A00190018001A000A001C001B0094
:103C80001A000A001D001C001A000A001E001D0078
:103C90001A000A001F001E001A000A0000001F0080
:103CA0001B000B00010000001B000B0002000100C4
:103CB0001B000B00030002001B000B0004000300AC
:103CC0001B000B00050004001B000B000600050094
:103CD0001B000B00070006001B000B00080007007C
:103CE0001B000B00090008001B000B000A00090064
:103CF0001B000B000D000C001B000B000E000D0044
:103D00001B000B000F000E001B000B0010000F002B
:103D10001B000B00110010001B000B001200110013
:103D20001B000B00130012001B000B0014001300FB
:103D30001B000B00150014001B000B0016001500E3
:103D40001B000B00170016001B000B0018001700CB
:103D50001B000B00190018001B000B001A001900B3
:103D60001B000B001D001C001B000B001E001D0093
:103D70001B000B001F001E001B000B0000001F009B
:103D80001C000C00010000001C000C0002000100DF
:103D90001C000C00030002001C000C0004000300C7
:103DA0001C000C00050004001C000C0006000500AF
:103DB0001C000C00070006001C000C000800070097
:103DC0001C000C00090008001C000C000A0009007F
:103DD0001C000C000B000A001C000C000E000D0063
:103DE0001C000C000F000E001C000C0010000F0047
:103DF0001C000C00110010001C000C00120011002F
:103E00001C000C00130012001C000C001400130016
:103E10001C000C00150014001C000C0016001500FE
:103E20001C000C00170016001C000C0018001700E6
:103E30001C000C00190018001C000C001A001900CE
:103E40001C000C001B001A001C000C001E001D00B2
:103E50001C000C001F001E001C000C0000001F00B6
:103E60001D000D00010000001D000D0002000100FA
:103E70001D000D00030002001D000D0004000300E2
:103E80001D000D00050004001D000D0006000500CA
:103E90001D000D00070006001D000D0008000700B2
:103EA0001D000D00090008001D000D000A0009009A
:103EB0001D000D000B000A001D000D000C000B0082
:103EC0001D000D000F000E001D000D0010000F0062
:103ED0001D000D00110010001D000D00120011004A
:103EE0001D000D00130012001D000D001400130032
:103EF0001D000D00150014001D000D00160015001A
:103F00001D000D00170016001D000D001800170001
:103F10001D000D00190018001D000D001A001900E9
:103F20001D000D001B001A001D000D001C001B00D1
:103F30001D000D001F001E001D000D0000001F00D1
:103F40001E000E00010000001E000E000200010015
:103F50001E000E00030002001E000E0004000300FD
:103F60001E000E00050004001E000E0006000500E5
:103F70001E000E00070006001E000E0008000700CD
:103F80001E000E00090008001E000E000A000900B5
:103F90001E000E000B000A001E000E000C000B009D
:103FA0001E000E000D000C001E000E0010000F0081
:103FB0001E000E00110010001E000E001200110065
:103FC0001E000E00130012001E000E00140013004D
:103FD0001E000E00150014001E000E001600150035
:103FE0001E000E00170016001E000E00180017001D
:103FF0001E000E00190018001E000E001A00190005
:104000001E000E001B001A001E000E001C001B00EC
:104010001E000E001D001C001E000E0000001F00F0
:104020001F000F00010000001F000F000200010030
:104030001F000F00030002001F000F000400030018
:104040001F000F00050004001F000F000600050000
:104050001F000F00070006001F000F0008000700E8
:104060001F000F00090008001F000F000A000900D0
:104070001F000F000B000A001F000F000C000B00B8
:104080001F000F000D000C001F000F000E000D00A0
:104090001F000F00110010001F000F001200110080
:1040A0001F000F00130012001F000F001400130068
:1040B0001F000F00150014001F000F001600150050
:1040C0001F000F00170016001F000F001800170038
:1040D0001F000F00190018001F000F001A00190020
:1040E0001F000F001B001A001F000F001C001B0008
:1040F0001F000F001D001C001F000F001E001D00F0
:1041000010F00700DFF8443A1A684FF6FF010A4042
:10411000DFF83C1A51EA00210A431A607047F8B5EB
:10412000CCB00020002001F0E3F90C20FFF7E8FFFD
:10413000002001F0FDFE0221042001F072FB02F0DC
:10414000DBF802F039F900F04DFA002803D0DFF86F
:10415000080A02F0EDF84FF49671002201AC20003D
:1041600002F032F9DFF8F41901A802F060F900F06A
:104170002AFA022401250220ADF80000042600F0EE
:1041800031FF06E0DFF8D819DFF8D809006800F041
:104190006EFB2800C0B2002800F01C81DFF8C8794F
:1041A000386802F06DFD210089B2814205D26A466D
:1041B000DFF8B819386802F0D3FBDFF8B0090178EE
:1041C000612920D141780A291DD1310009B2012984
:1041D00019D0012600F050FA02F097FD02F0ECF839
:1041E00000F000FA02F083FDDFF87809006803F0C0
:1041F00064FDDFF87C0900F0E6F900F0F3FE3868B2
:1042000002F0DEFB90E0017862291CD141780A2996
:1042100019D1310009B2022915D002F068FDDFF88A
:104220004409006803F049FDDFF8480900F0CBF9C4
:10423000022600F049FEDFF8400900F0C4F93868B2
:1042400002F0BEFB70E00178632918D141780A2999
:1042500015D1310009B2032911D0032602F047FD20
:10426000DFF80009006803F028FDDFF8100900F00E
:10427000AAF900F0B7FE386802F0A2FB54E001781A
:10428000642918D141780A2915D1310009B20429CD
:1042900011D0042602F02BFDDFF8C808006803F0F7
:1042A0000CFDDFF8DC0800F08EF900F09BFE3868AA
:1042B00002F086FB38E00178652918D141780A2997
:1042C00015D1310009B2052911D0052602F00FFDE4
:1042D000DFF89008006803F0F0FCDFF8A80800F0B1
:1042E00072F900F07FFE386802F06AFB1CE001788A
:1042F000662909D141780A2906D1062600F082FDF7
:10430000386802F05DFB0FE00178672909D1407839
:104310000A2806D1072600F075FD386802F050FB28
:1043200002E0386802F04CFB300000B201283FF494
:1043300029AF300000B2022807D1DFF85018DFF8AB
:104340002408006800F0ADF923E7300000B203282C
:1043500008D10822DFF80818DFF80808006800F024
:10436000D1FA16E7300000B2042808D11022DFF895
:10437000F017DFF8F007006800F0C4FA09E7300032
:1043800000B2052808D12022DFF8D417DFF8D407BF
:10439000006800F0B7FAFCE6300000B2062808D149
:1043A0001022DFF8EC17DFF8BC07006800F0FAFB1A
:1043B000EFE6300000B2072807D1DFF8D417DFF8A6
:1043C000A407006800F003FAE3E6DFF8C80700F08E
:1043D000FAF8DEE6DFF88C47206804F0BEF9002822
:1043E00003D0DFF8B40701F0A3FF206803F065FCF9
:1043F000002803D0DFF8A40701F09AFFDFF8680770
:10440000006802F05AFA00B2002803D0DFF89007E3
:1044100001F08EFF00204DB0F0BD38B50B0011004B
:1044200000221DE0140064B230F91440241E012C57
:1044300015D2140064B2640000EB4404B4F90240E5
:10444000241E012C0BD2002415006DB220F815405B
:10445000140064B2640000EB440400256580521C23
:10446000140064B2022CDDDB002208E0140064B208
:1044700030F8144015006DB223F81540521C14009A
:1044800064B2042CF2DB0422180004F017FA31BDE8
:10449000D0B50C0000260027002C16D00600C71748
:1044A0000023A2FB060102FB071103FB06114901D1
:1044B00041EAD06140012200E31704F051FA461CA2
:1044C00071F1FF377F105FEA360636F0FF3037F0C4
:1044D0000001002901D1002802D07FF0004000E057
:1044E0003000D0BD38B50A0000240025002A10D0C5
:1044F0004FF47A7181FB0001490141EAD06140012A
:10450000D31704F02DFA441C71F1FF356D105FEAEA
:10451000340434F0FF3035F00001002901D10028C7
:1045200002D07FF0004000E0200032BD03B581B032
:104530000299002938D59DF80810D1F110019DF895
:10454000002061F303028DF8002002990911009AFE
:1045500061F31F1200929DF8081011F00F0100295D
:1045600002D0009910310091009941F31B110029EC
:104570000BD19DF8002012F00F0240F271214A4346
:10458000DFF87C1804F026FB1CE09DF8003013F0E7
:104590000F0340F271214B43009941F31B12DFF8E6
:1045A000201A04F017FB0DE09DF8083013F00F03FC
:1045B00040F271214B43029941F31B12DFF8001ABC
:1045C00004F008FB07BD1CB50400200004F022FB2A
:1045D000ADF800006A462100DFF88C05006802F0A3
:1045E0008FF913BD10B586B0DFF880050390022067
:1045F000ADF81000DFF8C00805906420ADF8120097
:10460000DFF8644503AA2100002002F000F900B29F
:10461000002803D0DFF8A40801F08AFE04208DF8FA
:10462000000001208DF8030001208DF80400002017
:104630008DF8010003208DF8020000208DF80500A0
:104640006946206802F031FA00B2002803D0DFF892
:10465000700801F06DFE0121206802F0B9FA040033
:10466000200000B2002803D0DFF8BC0A01F060FE91
:10467000200000B206B010BD80B50020DFF8E804CD
:10468000006802F01AF90100080009B2002901D0FF
:1046900000B200E000B202BD00E0401E0028FCD1E4
:1046A00070472DE9F843F0B004000D00002645E006
:1046B000684600210160042303AA2900200003F0BA
:1046C0006BF9002803D0DFF80009FFF77CFF07AA89
:1046D00005A903A8FFF7A1FE022201A907A804F07B
:1046E000B5FA48F26C1201990298FFF7D1FE0090DA
:1046F0004FF4967100220DF12C09484601F064FE3A
:10470000DFF8C8287CA156A804F064FA63A956A86B
:1047100001F08DFE00990BA8FFF708FF0BA956A822
:1047200001F085FE7F1C380040B24045C0DB73A11C
:1047300056A801F07CFEFFF746FF761C300040B221
:104740000F2840DADFF88808310049B200EBC102D7
:10475000D2E90001890641EA90118006DFF8742849
:10476000002304F01FF904F037FB0022DFF868385B
:1047700004F056FB04F012FC0700DFF8600831007B
:1047800049B250F821205EA163A804F023FA322137
:1047900000220DF5AC78404601F016FE300040B224
:1047A0000F2800DB0026DFF8E40357F01847C76046
:1047B000DFF8781901610121200003F0A6F95FF00C
:1047C00001080027AFE771B0BDE8F083000030B505
:1047D000E3B004006846002101603221002256AD9A
:1047E000280001F0F1FD4FF4967100220BAD280076
:1047F00001F0EAFD042303AADFF89413200003F07C
:10480000CBF8002803D0DFF8D807FFF7DCFE07AAB3
:1048100005A903A8FFF701FE022201A907A804F0D9
:1048200015FA00240EE001A8210049B200EB810036
:1048300041680198FFF756FE6946220052B241F8DE
:104840002200641C200040B20128ECDB00990BA878
:10485000FFF76CFE0BA956A801F0E9FD27A101F0B6
:10486000E6FD56A8FFF7AFFE63B030BD0000F0B51F
:10487000E3B004000D0068460021016048F26C16A8
:1048800030003221002256AF380001F09DFD4FF478
:10489000967100220BAF380001F096FD042303AAA5
:1048A0002900200003F078F8002803D0DFF818076B
:1048B000FFF789FE07AA05A903A8FFF7AEFD0222AC
:1048C00001A907A804F0C2F9320001990298FFF784
:1048D000DFFD009000990BA8FFF728FE0BA956A852
:1048E00001F0A5FD05A101F0A2FD56A8FFF76BFEA2
:1048F00063B0F0BD0000000025733A00200D0A00EF
:1049000025733B002DE9F04FADF5457D07000E0006
:104910009246BAF1080F01D1202410E0BAF1100F2D
:1049200001D1C0240BE0BAF1200F02D14FF4607422
:1049300005E04FF46874DFF8F807FFF744FE48F22B
:104940006C100D904FF4C871002261AD280001F089
:104950003BFDDFF8E01761A804F03CF961A8FFF720
:1049600032FE00250F970E9626E004230BAA0E991F
:104970000F9803F011F8002803D0DFF8BC07FFF709
:1049800022FE12AA10A90BA8FFF747FD022209A9CF
:1049900012A804F05BF90D9A09990A98FFF778FDBF
:1049A0000090009916A8FFF7C1FD6AA116A801F0B2
:1049B0003EFDFFF708FE6D1CA54280F0BB804FF462
:1049C0009671002216AE300001F0FEFC102100228C
:1049D00012AE300001F0F8FC0821002210AE3000C9
:1049E00001F0F2FC0821002209AE300001F0ECFCDD
:1049F000082100220BAE300001F0E6FC68460021E1
:104A00000160BAF1080F04D1DFF8300700EBC500F0
:104A100013E0BAF1100F04D1DFF8240700EBC50052
:104A20000BE0BAF1200F04D1DFF8180700EBC50046
:104A300003E0DFF8140700EBC5000C21DFF80C27BA
:104A4000B0F902304B4302EB0309B0F906304B4397
:104A500002EB0306B0F900304B4302EB030BB0F955
:104A6000040001FB00F102EB01075FF0000815E014
:104A7000BDF80810019802F05DFA0DE0BDF81010C5
:104A8000039802F057FA37F918000128F0DBBDF857
:104A90000810019802F030FA18F10108B8F1050F7A
:104AA000BFF663AFDFF8A80600EBC802D2E9000149
:104AB000CDE90701DFF89C0600EBC802D2E900014E
:104AC000CDE90501DFF8900600EBC802D2E900014C
:104AD000CDE90301DFF8840600EBC802D2E900014A
:104AE000CDE9010139F91800012805DBBDF82010D6
:104AF000079802F001FA04E0BDF82010079802F0D0
:104B000019FA36F91800012805DBBDF818100598C8
:104B100002F0F2F904E0BDF81810059802F00AFA64
:104B20003BF918000128A9DBBDF81010039802F02A
:104B3000E3F9A8E714A0FFF746FD0B48006801F071
:104B40003FFF0DF5457DBDE8F08F00000CED00E066
:104B50000000FA052C000000C0C0000068C9000079
:104B6000EC00002078070020740700209007002048
:104B7000B4C70000F0C40000B8C80000C0C5000001
:104B8000E0C5000000C600000D0A0000340100204E
:104B900008000020C8C8000004C1000088C100004F
:104BA000A0BF00002DE9F84FADF5447D07000E00D1
:104BB0009246BAF1080F01D120240FE0BAF1100F8C
:104BC00001D1C0240AE0BAF1200F02D14FF4607481
:104BD00004E00024DFF85805FFF7F5FC4FF4C87136
:104BE000002260AD280001F0EFFBDFF8481560A857
:104BF00003F0F0FF60A8FFF7E6FC00250E970D9686
:104C00001DE009A8310049B200EB81004168099814
:104C1000FFF768FC6946320052B241F82200761C68
:104C2000300040B20128ECDB009915A8FFF77EFCAC
:104C3000A0A115A801F0FBFBFFF7C5FC6D1CA54268
:104C400080F0D3804FF49671002215AE300001F051
:104C5000BBFB1021002211AE300001F0B5FB082192
:104C600000220FAE300001F0AFFB0821002209AE98
:104C7000300001F0A9FB082100220BAE300001F04A
:104C8000A3FB6846002101600020BAF1080F04D19F
:104C9000DFF8A80400EBC50013E0BAF1100F04D14F
:104CA000DFF89C0400EBC5000BE0BAF1200F04D143
:104CB000DFF8900400EBC50003E0DFF8880400EBA8
:104CC000C5000C21DFF88424B0F902304B4302EB1D
:104CD0000309B0F906304B4302EB0306B0F900308C
:104CE0004B4302EB030BB0F9040001FB00F102EBB4
:104CF00001075FF0000815E0BDF80810019802F008
:104D000019F90DE0BDF81010039802F013F937F906
:104D100018000128F0DBBDF80810019802F0ECF84B
:104D200018F10108B8F1050F47DADFF8240400EBA9
:104D3000C802D2E90001CDE90701DFF8180400EB51
:104D4000C802D2E90001CDE90501DFF80C0400EB4F
:104D5000C802D2E90001CDE90301DFF8000400EB4D
:104D6000C802D2E90001CDE9010139F91800012892
:104D700005DBBDF82010079802F0BEF804E0BDF88E
:104D80002010079802F0D6F836F91800012805DB44
:104D9000BDF81810059802F0AFF804E0BDF818103F
:104DA000059802F0C7F83BF918000128AADBBDF806
:104DB0001010039802F0A0F8A9E704230BAA0D999C
:104DC0000E9802F0E9FD002803D0DFF86C03FFF72E
:104DD000FAFB11AA0FA90BA8FFF71FFB022209A9D2
:104DE00011A803F033FF00261AE776A0FFF7EBFBCC
:104DF0003448006801F0E4FD0DF5457DBDE8F08F15
:104E0000D8C800001CB501F059FF002803D0DFF816
:104E10001006FFF7D8FB00F0A3F9DFF808462000E2
:104E200002F0EAFE002803D0DFF8FC05FFF7CBFB19
:104E3000206803F00BFA002803D0DFF8F005FFF735
:104E4000C2FB206803F0F4FA002803D0DFF8E00585
:104E5000FFF7B9FB206803F019FB002803D0DFF847
:104E6000D405FFF7B0FB206803F007FC002803D04F
:104E7000DFF8C405FFF7A7FBDFF8C005DFF8C015B2
:104E8000C160DFF8C01501610121206802F03DFE1C
:104E900004236A46DFF8B015206802F07DFD002883
:104EA00003D0DFF8A805FFF78EFBDFF8A405FFF7B6
:104EB0008AFB13BD2C00000000060020CCC70000B8
:104EC0001CC30000740700201CB5DFF85845200003
:104ED00002F092FE002803D0DFF8780501F028FAEE
:104EE0004FF47A71206802F02BFE002803D0DFF81F
:104EF000680501F01DFA48F2E801206802F04DFE55
:104F0000002803D0DFF8540501F012FA206803F0FE
:104F10009DF9002803D0DFF8480501F009FADFF811
:104F20004405FFF7B9FB206803F023FA002803D0FB
:104F3000DFF83405FFF747FB206803F0B4F90028D9
:104F400003D0DFF82805FFF73EFB206803F070FA76
:104F5000002803D0DFF8180501F0EAF96A46DFF807
:104F60001415206802F084F9002803D0DFF8080542
:104F700001F0DEF9009ADFF80415206802F042F92A
:104F8000002803D0DFF8F80401F0D2F901AADFF815
:104F9000F414206802F06CF9002803D0DFF8E8046C
:104FA00001F0C6F9019ADFF8E414206802F02AF94A
:104FB000002803D0DFF8D80401F0BAF913BD0000CF
:104FC00074C900000D0A000040C6000080C900003E
:104FD00080BC00000024F4000000E03F300200200C
:104FE000E4C700007FB501F069FE002803D0DFF8B8
:104FF0003004FFF7E8FA00F0B3F8DFF828442000A7
:1050000002F0FAFD002803D0DFF88804FFF7DBFA8E
:105010004FF47A71206802F093FD002803D0DFF886
:105020007804FFF7D0FA48F2E801206802F0B5FDF5
:10503000002803D0DFF86404FFF7C5FA206803F006
:1050400005F9002803D0DFF8E403FFF7BCFADFF826
:105050001404FFF721FB206803F08BF9002803D02C
:10506000DFF80404FFF7AFFA206803F01CF900280A
:1050700003D0DFF8F803FFF7A6FA206803F0D8F9A9
:10508000002803D0DFF8A803FFF79DFA6A46DFF88F
:10509000E413206802F0ECF8002803D0DFF80004E5
:1050A000FFF791FA009ADFF8D413206802F0AAF80B
:1050B000002803D0DFF8EC03FFF785FA01AADFF838
:1050C000C413206802F0D4F8002803D0DFF8D80316
:1050D000FFF779FA019ADFF8B413206802F092F82A
:1050E000002803D0DFF8C403FFF76DFADFF84C5354
:1050F000DFF84C03E8600D4828610121206802F0C8
:1051000004FD0821002202AE300001F05DF9042305
:1051100002AA2900206802F03FFC002803D0DFF833
:105120009003FFF750FA7FBD20C60000FD05009EEA
:1051300028C70000E8C8000060C6000050B90000A1
:10514000D0B100000025000000080000D0B700002A
:1051500090010020B8010020E0010020080200209A
:1051600030B5F9B0DFF84C4300222021200001F0D7
:1051700070FE002802D0D048FFF725FA0122202136
:10518000200001F00EFE002802D0CC48FFF71BFAE9
:1051900001222021200001F030FE002802D0C64864
:1051A000FFF711FA00224FF40061200001F051FED8
:1051B000002802D0C048FFF706FA01224FF4006130
:1051C000200001F0EEFD002802D0BD48FFF7FBF9FA
:1051D00001224FF40061200001F00FFE002802D0F0
:1051E000B548FFF7F0F9B74C00224FF4805120008A
:1051F00001F02FFE002802D0AF48FFF7E4F90122AA
:105200004FF48051200001F0CCFD002802D0AE48C0
:10521000FFF7D9F901224FF48051200001F0EDFD94
:10522000002802D0A448FFF7CEF9A84C0022402164
:10523000200001F00EFE002802D09F48FFF7C3F9BE
:1052400001224021200001F0ACFD002802D0A0483E
:10525000FFF7B9F901224021200001F0CEFD00281E
:1052600002D09548FFF7AFF94FF4C871002215AC92
:10527000200001F0A9F8974A68A115A803F0AAFC3C
:105280000024C6E03221002208AD280001F09CF87D
:10529000914800EBC400D0E90023CDE906238F48F4
:1052A00000EBC400D0E90023CDE904238C4800EBD7
:1052B000C400D0E90023CDE902238A4800EBC400F2
:1052C000D0E90023CDE900230022BDF81C10069888
:1052D00001F0BFFD002802D08348FFF774F90122D6
:1052E000BDF81C10069801F05CFD00280AD0BDF83E
:1052F0001C30069A7D4908A803F06CFC08A915A883
:1053000001F095F80122BDF81C10069801F075FD1A
:10531000002802D06848FFF756F90022BDF81410A3
:10532000049801F096FD002802D06F48FFF74BF972
:105330000122BDF81410049801F033FD00280AD0B2
:10534000BDF81430049A694908A803F043FC08A981
:1053500015A801F06CF80122BDF81410049801F0B2
:105360004CFD002802D05448FFF72DF90022BDF86B
:105370000C10029801F06DFD002802D05A48FFF78A
:1053800022F90122BDF80C10029801F00AFD002854
:105390000AD0BDF80C30029A544908A803F01AFC50
:1053A00008A915A801F043F80122BDF80C100298D5
:1053B00001F023FD002802D03F48FFF704F9002246
:1053C000BDF80410009801F044FD002802D04648C2
:1053D000FFF7F9F80122BDF80410009801F0E1FC94
:1053E00000280AD0BDF80430009A404908A803F00C
:1053F000F1FB08A915A801F01AF80122BDF8041064
:10540000009801F0FAFC002802D02B48FFF7DBF8E7
:10541000641C052CFFF636AF79B030BD25733A0019
:10542000F8C800007807002008C9000018C900006B
:1054300044C700006CC8000060C700009000002056
:10544000999901988BEF009E4000002028C9000028
:1054500080C80000C8C10000E8BF000030C00000E4
:1054600078C0000080841E00FCC7000094C80000C3
:105470004CBF00000C010840D4BD000004010840EE
:1054800034BE00001001084094BE0000080108402E
:1054900070BD000004CA000038C9000048C90000FF
:1054A00044C300006CC3000094C30000C8C20000E5
:1054B00058C9000040000240BCC30000E4C3000023
:1054C0000CC40000C000024034C400008000024050
:1054D0005CC400007CC7000090010020B8010020DF
:1054E000E00100200802002014C500008CC9000063
:1054F00070B572B6DFF8040ADFF8041A08605FF4CA
:10550000E020DFF8001A0860BFF36F8FBFF34F8F02
:1055100062B6DFF8F4594CF614362E80DFF8EC4909
:10552000208850F00300208020888005FCD5DFF81B
:10553000941A0A884FF6FC7002400A800020088006
:1055400041F21000DFF8C81908808820DFF8701ACF
:1055500008808F20DFF8BC1908804FF4C070DFF896
:10556000C01A0880012000F04FF82E8021884FF6E5
:10557000F7700140218000F001F870BD4FF4004049
:10558000DFF8441A0860DFF83C0A018811F00301D3
:10559000C9B2002905D002290FD008D303292CD085
:1055A00031E0DFF8280ADFF87C1A08602BE0DFF82A
:1055B0001C0ADFF8701A086025E00088000502D593
:1055C000DFF8080A01E0DFF8040ADFF8F42911889F
:1055D00011F03F014843118811F0C001402903D068
:1055E000802902D1800800E040081188C90500D553
:1055F0004008DFF8301A086005E0DFF82C0A006880
:10560000DFF8201A0860704780B5C0B200281ED0AD
:10561000022824D01FD3042829D024D306282CD034
:1056200028D308282FD02BD30A2832D02ED30C28E9
:1056300035D031D30E2838D034D310283BD037D3CF
:1056400012283ED03AD3142841D03DD341E0002265
:105650004FF400613DE04FF400610A0039E00022A0
:105660004FF4807135E04FF480710A0031E0002280
:10567000F0212EE01022F0212BE02022F02128E062
:105680003022F02125E04022F02122E05022F021BA
:105690001FE06022F0211CE07022F02119E080223E
:1056A000F02116E09022F02113E0A022F02110E07A
:1056B000B022F0210DE0C022F0210AE000220321F7
:1056C00007E00122032104E00222032101E003227A
:1056D000032172B6DFF8EC38188830EA0101114373
:1056E000198062B6FFF74AFF01BD0100C9B2002967
:1056F00005D002290DD007D303290ED010E04FF4B6
:1057000000600B2200230BE04FF48070082202237C
:1057100006E0F0200422042302E0032000221123EB
:10572000DFF8A018098889B280B208401041181823
:10573000C0B2704738B50400DFF8E8582868002880
:1057400004D0DFF884080068002800D1FEE7FFF7E6
:1057500015FFE4B2002C012C06D9A41E052C18D983
:10576000A41F072C1DD924E0DFF8A80ADFF8A02722
:10577000118811F03F01012901D1012106E01188B2
:1057800011F03F011288120600D58908B0FBF1F034
:1057900032BD2868DFF87817098889B2C1F305217E
:1057A000F4E72868DFF86817098889B211F03F012B
:1057B000ECE740F20230EBE7C0B200280BD0022841
:1057C00018D015D3042819D016D306281AD017D309
:1057D000072819D01AE04FF4807072B6C9B20029B8
:1057E00017D0DFF83C180A8832EA0000088015E07C
:1057F0008020F2E72020F0E71020EEE70820ECE719
:105800000420EAE70220E8E70120E6E740F2023060
:1058100006E0DFF80C180A881043088062B6002002
:10582000704710B511F0C00F02D040F201301FE0F8
:10583000C0B20028012806D9801E052819D9801F6A
:10584000072836D953E011F0FE0F02D040F20130A4
:105850000EE08020C9B2C90172B6DFF8B4361A88EA
:1058600032EA00000143198062B6FFF787FE00208C
:1058700010BD0A00D2B2DFF89806008810F03F0091
:10588000130004009BB2A4B2A34202D240F205303E
:10589000EEE792B280B292FBF0F300FB13200028F7
:1058A00002D04FF44170E3E74FF47C50C9B20902D3
:1058B000D2E7DFF85C060088C0F305220800C0B21A
:1058C000130004009BB2A4B2A34202D240F20530FE
:1058D000CEE792B280B292FBF0F300FB13200028D7
:1058E00002D04FF44170C3E73F20C9B2B4E740F2A1
:1058F0000230BDE738B50200D2B2002A09D0022A30
:1059000021D017D3042A30D026D3062A37D031D35A
:1059100007E00824DFF8F4554CF61432DFF8E835D8
:105920001A8072B60A00D2B2002A42D02A882243D4
:105930002A8041E00424DFF8D4554CF61432DFF815
:10594000C8351A80EDE70224DFF8C0554CF6143252
:10595000DFF8B4351A80E4E70124DFF8B0554CF6DF
:105960001432DFF8A4351A80DBE74FF40074DFF857
:105970005056D6E74FF40074DFF89855D1E7DFF8BA
:10598000144900224FF40061200001F062FA00285F
:1059900002D040F211302EE001224FF400612000CD
:1059A00001F02BFA002802D040F2113023E0002051
:1059B00021E02A88A2432A8062B6C0B2012819D108
:1059C000C9B2002916D1092000F0A6FA00210091E1
:1059D00002E00099491C009100998142F9D372B606
:1059E0004CF61430DFF820150880288830EA0404CB
:1059F0002C8062B6002032BD2DE9F04105000C007C
:105A000000262800C0B200F059F9022847D028002B
:105A1000C0B2052820D172B6DFF8F874398811F0C9
:105A20003F084FF6C070014051F03F0151F4007142
:105A3000398062B6222000F06FFA00E0401E002894
:105A4000FCD172B639884FF6C070014058EA01089F
:105A5000A7F8008062B604E001212800C0B2FFF779
:105A600049FF2000C0B2002819D02000C0B2012890
:105A700002D143F6992400E0E4B2200000F04CFA91
:105A8000040000E0641E002C05D02800C0B200F025
:105A900015F90228F6D1002C01D14FF442763000DE
:105AA00000B2BDE8F08138B5040000252000C0B286
:105AB00000280BD0022826D06CD3042860D0C0F078
:105AC000B180062800F0EE8063D3F4E00320FFF7F6
:105AD0000CFE122802D140F2093013E00020FFF73B
:105AE00004FE012807D10320FFF7FFFD132802D190
:105AF00040F20A3006E000212000C0B2FFF7FAFEB3
:105B0000280000B232BD0320FFF7EFFD112802D1BB
:105B100040F20930F6E70020FFF7E7FD002807D143
:105B20000320FFF7E2FD132802D140F20A30E9E733
:105B3000DFF86407018811F06001202905D1008891
:105B4000C00602D540F20B30DCE7DFF850070188D1
:105B500011F06001202905D10088C00602D540F26D
:105B60000B30CFE7DFF83807018811F060012029FA
:105B700005D10088C00602D540F20B30C2E7BAE773
:105B80000320FFF7B2FD132802D140F20930B9E734
:105B9000B1E7B0E70120FFF7A8FD032806D100F028
:105BA00089F9002802D040F20E30ABE7DFF8F406A6
:105BB0000068C00702D540F20D30A3E7DFF8E80621
:105BC000008880B210F4D060B0F5207F02D14FF48D
:105BD000437097E7DFF8C006018811F06001602983
:105BE00005D10088C00602D540F20B308AE7DFF805
:105BF000AC06018811F06001602905D10088C0065B
:105C000002D540F20B307DE7DFF89406018811F0F1
:105C10006001602905D10088C00602D540F20B3032
:105C200070E768E70120FFF760FD022806D100F069
:105C300041F9002802D040F20E3063E7DFF8680631
:105C4000008880B210F4D060B0F5906F02D14FF4AC
:105C5000437057E7DFF84006018811F060014029E2
:105C600005D10088C00602D540F20B304AE7DFF8C4
:105C70002C06018811F06001402905D10088C0067A
:105C800002D540F20B303DE7DFF81406018811F031
:105C90006001402905D10088C00602D540F20B30D2
:105CA00030E728E70320FFF720FD142802D140F257
:105CB000093027E71FE740F2023023E738B5002418
:105CC00092490988C0B2002819D0022807D01ED3F3
:105CD000042832D00BD3062821D03BD347E08807D5
:105CE00004D5880501D5022400E0012440E0C8075E
:105CF00004D5C80501D5022400E0012438E00807D6
:105D000004D5080501D5022400E0012430E048074D
:105D100004D5480501D5022400E0012428E0DFF87D
:105D20007455280001F0C1F8000505D4280001F0E1
:105D3000D0F8000500D402241AE0A14800888005AC
:105D400007D5DFF868050088C00701D5022400E008
:105D500001240DE06F480088800507D5DFF84C0569
:105D60000088C00601D5022400E0012400E00324DD
:105D70002000C0B232BD70B50C0015001E00C0B2CC
:105D8000042802D0052818D020E00320FFF7ADFC3E
:105D9000132802D14FF444700EE0894840F2FF12FC
:105DA00036B2E4B23443EDB22C4372B6018891436B
:105DB0000C43048062B6002070BD564840F2FF12CA
:105DC00036B2E4B23443EDB22C43EEE740F2023097
:105DD000F2E7F0B40024002512F0F80F02D040F2F0
:105DE000073054E0002903D154F00204DFF8C01456
:105DF0000300DBB2002B05D0022B05D004D3032B0C
:105E000025D027E0002042E055F0040572B6DFF807
:105E1000A43444F659061E804FF27B261E80DFF81C
:105E2000986437884FF6FC731F40C0B23843308007
:105E3000DFF888643068A4B20443ADB2AC43346088
:105E4000EFF31183D2B2520182F3118810E054F0C3
:105E50000404DBE740F2063019E0DFF86404008850
:105E600010F00E0FF9D1BFF34F8F30BF62B672B68C
:105E700008780028F1D00020087083F3118830687A
:105E800030F002003060BFF34F8F62B60020F0BCEC
:105E9000704700280BD1DFF8180472B6DFF81C1425
:105EA0000A6832F002020A60BFF34F8F62B6012126
:105EB00001707047DFF80C040068000106D5DFF8B8
:105EC00008040068C00701D5012015E0DFF8FC03D5
:105ED0000088C00501D501200EE0DFF8F40300883A
:105EE000800601D5012007E0DFF8E8030088C0073D
:105EF00001D5012000E000207047000000000000F4
:105F000008ED00E024ED00E00C24004010240040E7
:105F1000048002401080024010B504000920FFF701
:105F200009FC000D002801D04443FFE7200010BD0C
:105F3000F8B5060000200024DFF89C5329780029DA
:105F40000AD100F045F80100080009B2002901D08B
:105F500000B233E001212970002100E0491D192918
:105F600006D2DFF8782312F831202B789A42F5D147
:105F70000A0000E0491C531D99420BDADFF85C333C
:105F800003EBC1077F78B4465FFA8CFC6745F1D11B
:105F900003EBC104002C0ED0A17800290BD061685E
:105FA000002901D060688047010009B2002904D1AE
:105FB000A178297001E040F2133000B2F2BD000078
:105FC0000C800240008002407C0700200024F40086
:105FD00038B50020C24D01210220FFF70DFD04005D
:105FE00000B2002802D0200000B217E01120FFF715
:105FF0000BFB0021280000F031F900210120FFF700
:1060000010FC0520FFF74FFD0420FFF74CFD00209A
:10601000FFF749FDFFF7B2FA200000B232BD0000E1
:1060200014800240800700208407002038B500203B
:10603000AC4C0020FFF759FB012804D101210020BE
:10604000FFF7DAFC03E001210220FFF7D5FC010095
:1060500009B2002901D000B25AE00320FFF745FB46
:10606000132821D1A048018811F0C001802907D14F
:10607000018811F03F01102902D10088C0051AD40F
:106080000020FFF732FB012803D11220FFF7BCFAF2
:1060900002E01120FFF7B8FA4FF48073102280213C
:1060A0000420FFF768FE06E04FF480731022802181
:1060B0000420FFF760FE01210420FFF79DFC05008E
:1060C00000B2002802D0280000B221E00121200007
:1060D00000F0C4F81320FFF797FA0021200000F029
:1060E000BDF80520FFF7DFFC0020FFF7FEFA0128CE
:1060F00003D10220FFF7D7FC02E00020FFF7D3FC1A
:1061000000210120FFF78DFBFFF738FA280000B2CD
:1061100032BD10B50020754C0020FFF7E6FA0128CB
:1061200004D101210020FFF767FC03E001210220D8
:10613000FFF762FC010009B2002901D000B268E05B
:106140000320FFF7D2FA132821D16748018811F004
:10615000C001802907D1018811F03F01102902D127
:106160000088C0051AD40020FFF7BFFA012803D128
:106170001220FFF749FA02E01120FFF745FA4FF429
:106180008073102280210420FFF7F5FD06E04FF414
:106190008073102280210420FFF7EDFD01210420EF
:1061A000FFF72AFC010000B2002802D0080000B26C
