:1000000000400020718A0000C7510000B354000076
:100010003F5600008756000003580000D9920000A8
:10002000D9920000D9920000D9920000C75A00006E
:100030002B5F0000D9920000D36E0000F76E000025
:100040000B7100004938000055380000613800008D
:100050006D380000793800008538000091380000C4
:100060009D380000A9380000C55900001771000034
:100070002F71000067720000072D000097720000CA
:10008000D37300000F740000337400007B7600000F
:10009000977600003B780000637900007F790000CC
:1000A000CF8A00000D8E00005F8F0000B39000002B
:1000B000AD920000AF920000B19200005D490000D7
:1000C00089490000B3920000B5920000B792000089
:1000D000B9920000BB920000BD920000BF920000E8
:1000E000C1920000C3920000C59200008982000006
:1000F000D9920000C7920000C9920000B5380000F4
:10010000C1380000D9920000E74600008B4700008C
:10011000F7470000C3480000CB920000CD920000DA
:10012000CF920000D1920000D3920000D59200003F
:04013000D792000062
:1008000010F00700DFF8083A1A684FF6FF010A40B7
:10081000DFF8001A51EA00210A431A607047F8B560
:10082000CCB00520002001F097FA0C20FFF7E8FF7C
:10083000002001F0B1FF0221042001F026FC02F0AB
:100840008FF902F0EDF900F04DFA002803D0DFF83F
:10085000CC0902F0A1F94FF49671002201AC2000FE
:1008600002F0E6F9DFF8B81901A802F014FA00F076
:100870002AFA022401250220ADF80000052600F026
:10088000E7FF06E0DFF89C19DFF89C09006800F03C
:100890006EFB2800C0B2002800F01C81DFF8847BCA
:1008A000386802F021FE210089B2814205D26A46F1
:1008B000DFF87819386802F087FCDFF870090178F2
:1008C000612920D141780A291DD1310009B20129BD
:1008D00019D0012600F050FA02F04BFE02F0A0F908
:1008E00000F000FA02F037FEDFF83C09006803F080
:1008F00018FEDFF83C0900F0E6F900F0A9FF3868BF
:1009000002F092FC90E0017862291CD141780A291A
:1009100019D1310009B2022915D002F01CFEDFF80E
:100920000809006803F0FDFDDFF8080900F0CBF9C5
:10093000022600F0FBFEDFF8000900F0C4F9386879
:1009400002F072FC70E00178632918D141780A291D
:1009500015D1310009B2032911D0032602F0FBFDA5
:10096000DFF8C408006803F0DCFDDFF8D00800F011
:10097000AAF900F06DFF386802F056FC54E00178E7
:10098000642918D141780A2915D1310009B2042906
:1009900011D0042602F0DFFDDFF88C08006803F0B8
:1009A000C0FDDFF8880A00F08EF900F051FF3868CA
:1009B00002F03AFC38E00178652918D141780A291B
:1009C00015D1310009B2052911D0052602F0C3FD69
:1009D000DFF85408006803F0A4FDDFF8540A00F0C3
:1009E00072F900F035FF386802F01EFC1CE0017857
:1009F000662909D141780A2906D1062600F03AFE77
:100A0000386802F011FC0FE00178672909D14078BD
:100A10000A2806D1072600F02DFE386802F004FCF3
:100A200002E0386802F000FC300000B201283FF418
:100A300029AF300000B2022807D1DFF8FC19DFF837
:100A4000E807006800F0ADF923E7300000B20328A2
:100A500008D10822DFF8CC17DFF8CC07006800F0D7
:100A6000D1FA16E7300000B2042808D11022DFF8CE
:100A7000B417DFF8B407006800F0C4FA09E73000E3
:100A800000B2052808D11022DFF89817DFF8980780
:100A9000006800F0D5FBFCE6300000B2062808D163
:100AA0001022DFF89819DFF88007006800F0CEFC0C
:100AB000EFE6300000B2072807D1DFF88019DFF831
:100AC0006807006800F003FAE3E6DFF8740900F055
:100AD000FAF8DEE6DFF85047206804F072FA0028E2
:100AE00003D0DFF8600902F057F8206803F019FD21
:100AF000002803D0DFF8500902F04EF8DFF824098F
:100B0000006802F00EFB00B2002803D0DFF8600B93
:100B100002F042F800204DB0F0BD38B50B001100D6
:100B200000221DE0140064B230F91440241E012C90
:100B300015D2140064B2640000EB4404B4F902401E
:100B4000241E012C0BD2002415006DB220F8154094
:100B5000140064B2640000EB440400256580521C5C
:100B6000140064B2022CDDDB002208E0140064B241
:100B700030F8144015006DB223F81540521C1400D3
:100B800064B2042CF2DB0422180004F0CBFA31BD6D
:100B9000D0B50C0000260027002C16D00600C71781
:100BA0000023A2FB060102FB071103FB061149010A
:100BB00041EAD06140012200E31704F005FB461C26
:100BC00071F1FF377F105FEA360636F0FF3037F0FD
:100BD0000001002901D1002802D07FF0004000E090
:100BE0003000D0BD38B50A0000240025002A10D0FE
:100BF0004FF47A7181FB0001490141EAD061400163
:100C0000D31704F0E1FA441C71F1FF356D105FEA6F
:100C1000340434F0FF3035F00001002901D1002800
:100C200002D07FF0004000E0200032BD03B581B06B
:100C30000299002938D59DF80810D1F110019DF8CE
:100C4000002061F303028DF8002002990911009A37
:100C500061F31F1200929DF8081011F00F01002996
:100C600002D0009910310091009941F31B11002925
:100C70000BD19DF8002012F00F0240F271214A437F
:100C8000DFF8A41A04F0DAFB1CE09DF8003013F042
:100C90000F0340F271214B43009941F31B12DFF81F
:100CA000881B04F0CBFB0DE09DF8083013F00F0318
:100CB00040F271214B43029941F31B12DFF8681B8C
:100CC00004F0BCFB07BD1CB50400200004F0D6FBFB
:100CD000ADF800006A462100DFF84807006802F01E
:100CE00043FA13BD10B586B0DFF84005039002202B
:100CF000ADF81000DFF8340B05906420ADF8120059
:100D0000DFF8204703AA2100002002F0B4F900B266
:100D1000002803D0DFF8180B01F03EFF04208DF807
:100D2000000001208DF8030001208DF80400002050
:100D30008DF8010003208DF8020000208DF80500D9
:100D40006946206802F0E5FA00B2002803D0DFF817
:100D5000E40A01F021FF0121206802F06DFB04008C
:100D6000200000B2002803D0DFF8280C01F014FFA7
:100D7000200000B206B010BD80B50020DFF8A40648
:100D8000006802F0CEF90100080009B2002901D084
:100D900000B200E000B202BD00E0401E0028FCD11D
:100DA00070472DE9F843F0B004000D00002645E03F
:100DB000684600210160042303AA2900200003F0F3
:100DC0001FFA002803D0DFF8700AFFF77CFF07AA9C
:100DD00005A903A8FFF7A1FE022201A907A804F0B4
:100DE00069FB48F26C1201990298FFF7D1FE00905E
:100DF0004FF4967100220DF12C09484601F018FFBE
:100E0000DFF8382A7CA156A804F018FB63A956A87D
:100E100001F041FF00990BA8FFF708FF0BA956A8A6
:100E200001F039FF7F1C380040B24045C0DB73A1A0
:100E300056A801F030FFFFF746FF761C300040B2A5
:100E40000F2840DADFF8F809310049B200EBC1029F
:100E5000D2E90001890641EA90118006DFF8E42911
:100E6000002304F0D3F904F0EBFB0022DFF8D839BB
:100E700004F00AFC04F0C6FC0700DFF81C0B31008C
:100E800049B250F821205EA163A804F0D7FA3221BC
:100E900000220DF5AC78404601F0CAFE300040B2A9
:100EA0000F2800DB0026DFF8900557F01847C760D1
:100EB000DFF8E81A01610121200003F05AFA5FF01F
:100EC00001080027AFE771B0BDE8F083000030B53E
:100ED000E3B004006846002101603221002256ADD3
:100EE000280001F0A5FE4FF4967100220BAD2800FA
:100EF00001F09EFE042303AADFF84015200003F052
:100F00007FF9002803D0DFF8980AFFF7DCFE07AA74
:100F100005A903A8FFF701FE022201A907A804F012
:100F2000C9FA00240EE001A8210049B200EB8100BB
:100F300041680198FFF756FE6946220052B241F817
:100F40002200641C200040B20128ECDB00990BA8B1
:100F5000FFF76CFE0BA956A801F09DFE27A101F03A
:100F60009AFE56A8FFF7AFFE63B030BD0000F0B5A3
:100F7000E3B004000D0068460021016048F26C16E1
:100F800030003221002256AF380001F051FE4FF4FC
:100F9000967100220BAF380001F04AFE042303AA29
:100FA0002900200003F02CF9002803D0DFF888087E
:100FB000FFF789FE07AA05A903A8FFF7AEFD0222E5
:100FC00001A907A804F076FA320001990298FFF708
:100FD000DFFD009000990BA8FFF728FE0BA956A88B
:100FE00001F059FE05A101F056FE56A8FFF76BFE71
:100FF00063B0F0BD0000000025733A00200D0A0028
:1010000025733B002DE9F84FADF5447D07000E0038
:10101000082A01D120240EE0102A01D1C0240AE0C0
:10102000202A02D14FF4607405E04FF46874DFF8B1
:101030007409FFF748FE48F26C1B4FF4C871002298
:1010400060AD280001F0F4FDDFF85C1960A804F041
:10105000F5F960A8FFF737FE00250E970D9626E0FC
:1010600004230BAA0D990E9803F0CAF8002803D0A8
:10107000DFF83809FFF727FE11AA0FA90BA8FFF721
:101080004CFD022209A911A804F014FA5A46099944
:101090000A98FFF77DFD0090009915A8FFF7C6FD9F
:1010A0005DA115A801F0F7FDFFF70DFE6D1CA5422F
:1010B00080F0A3804FF49671002215AE300001F04D
:1010C000B7FD1021002211AE300001F0B1FD082162
:1010D00000220FAE300001F0ABFD0821002209AE66
:1010E000300001F0A5FD082100220BAE300001F018
:1010F0009FFD684600210160DFF8B40800EBC500E1
:101100000C21DFF8B028B0F902304B4302EB0309A1
:10111000B0F906304B4302EB0306B0F900304B4305
:1011200002EB030AB0F9040001FB00F102EB010736
:101130005FF0000815E0BDF80810019802F02EFBE2
:101140000DE0BDF81010039802F028FB37F91800E5
:101150000128F0DBBDF80810019802F001FB18F13E
:101160000108B8F1050FBFF67BAFDFF84C0800EBC4
:10117000C802D2E90001CDE90701DFF8400800EB21
:10118000C802D2E90001CDE90501DFF8340800EB1F
:10119000C802D2E90001CDE90301DFF8280800EB1D
:1011A000C802D2E90001CDE9010139F9180001288E
:1011B00005DBBDF82010079802F0D2FA04E0BDF874
:1011C0002010079802F0EAFA36F91800012805DB2A
:1011D000BDF81810059802F0C3FA04E0BDF8181025
:1011E000059802F0DBFA3AF918000128A9DBBDF8EE
:1011F0001010039802F0B4FAA8E78BA0FFF763FD84
:101200008848006802F010F80DF5457DBDE8F08FC4
:101210000CED00E00000FA052C0000000889000039
:10122000D8910000EC0000207807002090070020F3
:1012300024900000808D000028910000508E000056
:101240002DE9F34FADF5437D5FF0D00B48F26C1AFA
:101250004FF4C87100225EAC200001F0E9FCDFF819
:1012600048175EA804F0EAF85EA8FFF72CFD0024FA
:1012700026E004230BAAC499C39802F0C1FF0028FA
:1012800003D0DFF82807FFF71EFD0FAA0DA90BA852
:10129000FFF743FC022209A90FA804F00BF95246FC
:1012A00009990A98FFF774FC0090009913A8FFF7BA
:1012B000BDFC60A113A801F0EEFCFFF704FD641C67
:1012C0005C4580F0A3804FF49671002213AD280096
:1012D00001F0AEFC102100220FAD280001F0A8FCA7
:1012E000082100220DAD280001F0A2FC08210022F7
:1012F00009AD280001F09CFC082100220BAD28005C
:1013000001F096FC684600210160DFF8A40600EBBE
:10131000C4000C21DFF89C26B0F902304B4302EBED
:101320000305B0F906304B4302EB0306B0F9003079
:101330004B4302EB0309B0F9040001FB00F102EB9F
:1013400001075FF0000815E0BDF80810019802F0F1
:1013500025FA0DE0BDF81010039802F01FFA37F9D6
:1013600018000128F0DBBDF80810019802F0F8F928
:1013700018F10108B8F1050FBFF67BAFDFF83806AA
:1013800000EBC802D2E90001CDE90701DFF82C0625
:1013900000EBC802D2E90001CDE90501DFF8200623
:1013A00000EBC802D2E90001CDE90301DFF8140621
:1013B00000EBC802D2E90001CDE9010135F91800BE
:1013C000012805DBBDF82010079802F0C9F904E0F8
:1013D000BDF82010079802F0E1F936F9180001284D
:1013E00005DBBDF81810059802F0BAF904E0BDF865
:1013F0001810059802F0D2F939F918000128A9DB74
:10140000BDF81010039802F0ABF9A8E706A0FFF7AB
:101410005AFCDFF83804006801F006FF0DF5457D41
:10142000BDE8F08F740700200D0A0000708E0000E8
:10143000848B00002C0000003401002008000020F4
:101440003891000054890000A08900002DE9F04F78
:10145000ADF5437D06008B46082A01D120240DE01E
:10146000102A01D1C02409E0202A02D14FF460746F
:1014700004E00024DFF82C05FFF725FC4FF4C871C9
:1014800000225FAD280001F0D3FBDFF81C155FA838
:1014900003F0D4FF5FA8FFF716FC00250D961DE0B2
:1014A00009A8310049B200EB810041680998FFF7B3
:1014B00099FB6946320052B241F82200761C300096
:1014C00040B20128ECDB009914A8FFF7AFFB95A10F
:1014D00014A801F0E0FBFFF7F6FB6D1CA54280F0BD
:1014E000BB804FF49671002214AE300001F0A0FBD7
:1014F0001021002210AE300001F09AFB08210022DA
:101500000EAE300001F094FB0821002209AE30003D
:1015100001F08EFB082100220BAE300001F088FBA9
:101520006846002101600020DFF8840400EBC5005C
:101530000C21DFF88024B0F902304B4302EB0309A1
:10154000B0F906304B4302EB0306B0F900304B43D1
:1015500002EB030AB0F9040001FB00F102EB010702
:101560005FF0000815E0BDF80810019802F016F9C8
:101570000DE0BDF81010039802F010F937F91800CB
:101580000128F0DBBDF80810019802F0E9F818F125
:101590000108B8F1050F47DADFF81C0400EBC802B8
:1015A000D2E90001CDE90701DFF8100400EBC80221
:1015B000D2E90001CDE90501DFF8040400EBC8021F
:1015C000D2E90001CDE90301DFF8F80300EBC8021E
:1015D000D2E90001CDE9010139F91800012805DB44
:1015E000BDF82010079802F0BBF804E0BDF8201009
:1015F000079802F0D3F836F91800012805DBBDF88A
:101600001810059802F0ACF804E0BDF81810059821
:1016100002F0C4F83AF918000128AADBBDF810104E
:10162000039802F09DF8A9E704230BAA59460D98E8
:1016300002F0E6FD002803D0DFF87003FFF743FB5C
:1016400010AA0EA90BA8FFF768FA022209A910A890
:1016500003F030FF002632E772A0FFF734FB7B482F
:10166000006801F0E1FD0DF5437DBDE8F08F00005D
:10167000B88700001CB501F055FF002803D0DFF843
:101680000806FFF720FB00F09FF9DFF80046200076
:1016900002F0E6FE002803D0DFF8F405FFF713FBA5
:1016A000206803F007FA002803D0DFF8E805FFF709
:1016B0000AFB206803F0F0FA002803D0DFF8D80511
:1016C000FFF701FB206803F015FB002803D0DFF8CB
:1016D000CC05FFF7F8FA206803F003FC002803D0DC
:1016E000DFF8BC05FFF7EFFADFF8B805DFF8B8154B
:1016F000C160DFF8B81501610121206802F039FEF0
:1017000004236A46DFF8A815206802F079FD002856
:1017100003D0DFF8A005FFF7D6FADFF89C05FFF746
:10172000D2FA13BD2C000000489100001CB5DFF870
:101730005C45200002F094FE002803D0DFF87C0511
:1017400001F02AFA4FF47A71206802F02DFE002889
:1017500003D0DFF86C0501F01FFA48F2E8012068B9
:1017600002F04FFE002803D0DFF8580501F014FA0C
:10177000206803F09FF9002803D0DFF84C0501F042
:101780000BFADFF84805FFF707FB206803F025FA9E
:10179000002803D0DFF83805FFF795FA206803F03A
:1017A000B6F9002803D0DFF82C05FFF78CFA206883
:1017B00003F072FA002803D0DFF81C0501F0ECF901
:1017C0006A46DFF81815206802F086F9002803D071
:1017D000DFF80C0501F0E0F9009ADFF80815206841
:1017E00002F044F9002803D0DFF8FC0401F0D4F93A
:1017F00001AADFF8F814206802F06EF9002803D07F
:10180000DFF8EC0401F0C8F9019ADFF8E814206869
:1018100002F02CF9002803D0DFF8DC0401F0BCF959
:1018200013BD00000D0A0000E49100000006002036
:101830003C900000AC8B0000B08E0000F0910000E6
:10184000688400000024F4000000E03F74070020DA
:101850007FB501F067FE002803D0DFF82C04FFF706
:1018600032FA00F0B1F8DFF82444200002F0F8FD6D
:10187000002803D0DFF88404FFF725FA4FF47A71CB
:10188000206802F091FD002803D0DFF87404FFF710
:101890001AFA48F2E801206802F0B3FD002803D0EC
:1018A000DFF86004FFF70FFA206803F003F900285F
:1018B00003D0DFF8E003FFF706FADFF81004FFF7C4
:1018C0006BFA206803F089F9002803D0DFF80004E0
:1018D000FFF7F9F9206803F01AF9002803D0DFF8C0
:1018E000F403FFF7F0F9206803F0D6F9002803D0DD
:1018F000DFF8A403FFF7E7F96A46DFF8E013206892
:1019000002F0EAF8002803D0DFF8FC03FFF7DBF968
:10191000009ADFF8D013206802F0A8F8002803D05E
:10192000DFF8E803FFF7CFF901AADFF8C01320685A
:1019300002F0D2F8002803D0DFF8D403FFF7C3F990
:10194000019ADFF8B013206802F090F8002803D065
:10195000DFF8C003FFF7B7F9DFF84853DFF84803B3
:10196000E8600E4828610121206802F002FD08218C
:10197000002202AE300001F05BF9042302AA290024
:10198000206802F03DFC002803D0DFF88C03FFF74D
:101990009AF97FBD908E000030020020FD05009E68
:1019A00054900000988F000058910000D08E0000E5
:1019B000387A0000B880000090010020B8010020B3
:1019C000E00100200802002030B5F9B0DFF84C43F8
:1019D00000222021200001F070FE002802D0D04813
:1019E000FFF771F901222021200001F00EFE0028EE
:1019F00002D0CC48FFF767F901222021200001F036
:101A000030FE002802D0C648FFF75DF900224FF4EF
:101A10000061200001F051FE002802D0C048FFF70D
:101A200052F901224FF40061200001F0EEFD002880
:101A300002D0BD48FFF747F901224FF400612000B2
:101A400001F00FFE002802D0B548FFF73CF9B74C73
:101A500000224FF48051200001F02FFE002802D018
:101A6000AF48FFF730F901224FF48051200001F018
:101A7000CCFD002802D0AE48FFF725F901224FF433
:101A80008051200001F0EDFD002802D0A448FFF7AE
:101A90001AF9A84C00224021200001F00EFE002877
:101AA00002D09F48FFF70FF901224021200001F0EA
:101AB000ACFD002802D0A048FFF705F90122402123
:101AC000200001F0CEFD002802D09548FFF7FBF87A
:101AD0004FF4C871002215AC200001F0A9F8974A14
:101AE00068A115A803F0AAFC0024C6E03221002258
:101AF00008AD280001F09CF8914800EBC400D0E943
:101B00000023CDE906238F4800EBC400D0E9002371
:101B1000CDE904238C4800EBC400D0E90023CDE9D3
:101B200002238A4800EBC400D0E90023CDE900235A
:101B30000022BDF81C10069801F0BFFD002802D05D
:101B40008348FFF7C0F80122BDF81C10069801F089
:101B50005CFD00280AD0BDF81C30069A7D4908A813
:101B600003F06CFC08A915A801F095F80122BDF856
:101B70001C10069801F075FD002802D06848FFF798
:101B8000A2F80022BDF81410049801F096FD002878
:101B900002D06F48FFF797F80122BDF8141004989F
:101BA00001F033FD00280AD0BDF81430049A6949C9
:101BB00008A803F043FC08A915A801F06CF801225D
:101BC000BDF81410049801F04CFD002802D05448D0
:101BD000FFF779F80022BDF80C10029801F06DFDB6
:101BE000002802D05A48FFF76EF80122BDF80C1009
:101BF000029801F00AFD00280AD0BDF80C30029AC4
:101C0000544908A803F01AFC08A915A801F043F8E4
:101C10000122BDF80C10029801F023FD002802D02B
:101C20003F48FFF750F80022BDF80410009801F07B
:101C300044FD002802D04648FFF745F80122BDF8D0
:101C40000410009801F0E1FC00280AD0BDF804302F
:101C5000009A404908A803F0F1FB08A915A801F073
:101C60001AF80122BDF80410009801F0FAFC0028CF
:101C700002D02B48FFF727F8641C052CFFF636AF7F
:101C800079B030BD25733A006891000078070020D4
:101C90007891000088910000B48F0000DC90000073
:101CA000D08F000090000020999901988BEF009E42
:101CB0004000002098910000F0900000E8890000AA
:101CC0000C88000060880000B488000080841E003A
:101CD0006C90000004910000048700000C01084093
:101CE0009C8600000401084058850000100108404F
:101CF000C48500000801084030860000749200008E
:101D0000A8910000B8910000D48B0000FC8B00006B
:101D1000248C0000308B0000C8910000400002407D
:101D20004C8C0000748C00009C8C0000C0000240B1
:101D3000C48C000080000240EC8C0000EC8F00009E
:101D400090010020B8010020E001002008020020DE
:101D5000A48D0000FC91000070B572B6DFF8040A93
:101D6000DFF8041A08605FF4E020DFF8001A08606A
:101D7000BFF36F8FBFF34F8F62B6DFF8F4594CF6A5
:101D800014362E80DFF8EC49208850F003002080C4
:101D900020888005FCD5DFF8941A0A884FF6FC707D
:101DA00002400A800020088041F21000DFF8C819C4
:101DB00008808820DFF8701A08808F20DFF8BC19AF
:101DC00008804FF4C070DFF8C01A0880012000F0CE
:101DD0004FF82E8021884FF6F7700140218000F0E7
:101DE00001F870BD4FF40040DFF8441A0860DFF8D6
:101DF0003C0A018811F00301C9B2002905D002296B
:101E00000FD008D303292CD031E0DFF8280ADFF8FF
:101E10007C1A08602BE0DFF81C0ADFF8701A0860F3
:101E200025E00088000502D5DFF8080A01E0DFF8A8
:101E3000040ADFF8F429118811F03F0148431188A2
:101E400011F0C001402903D0802902D1800800E0B0
:101E500040081188C90500D54008DFF8301A08602D
:101E600005E0DFF82C0A0068DFF8201A08607047E8
:101E700080B5C0B200281ED0022824D01FD3042869
:101E800029D024D306282CD028D308282FD02BD310
:101E90000A2832D02ED30C2835D031D30E2838D092
:101EA00034D310283BD037D312283ED03AD314284D
:101EB00041D03DD341E000224FF400613DE04FF4BA
:101EC00000610A0039E000224FF4807135E04FF4E0
:101ED00080710A0031E00022F0212EE01022F02172
:101EE0002BE02022F02128E03022F02125E04022C2
:101EF000F02122E05022F0211FE06022F0211CE0BE
:101F00007022F02119E08022F02116E09022F021C9
:101F100013E0A022F02110E0B022F0210DE0C02259
:101F2000F0210AE00022032107E00122032104E05E
:101F30000222032101E00322032172B6DFF8EC380C
:101F4000188830EA01011143198062B6FFF74AFF91
:101F500001BD0100C9B2002905D002290DD007D367
:101F600003290ED010E04FF400600B2200230BE099
:101F70004FF480700822022306E0F020042204239C
:101F800002E0032000221123DFF8A018098889B29B
:101F900080B2084010411818C0B2704738B504002C
:101FA000DFF8E8582868002804D0DFF884080068C3
:101FB000002800D1FEE7FFF715FFE4B2002C012C4A
:101FC00006D9A41E052C18D9A41F072C1DD924E05E
:101FD000DFF8A80ADFF8A027118811F03F010129D6
:101FE00001D1012106E0118811F03F01128812068B
:101FF00000D58908B0FBF1F032BD2868DFF878170A
:10200000098889B2C1F30521F4E72868DFF8681769
:10201000098889B211F03F01ECE740F20230EBE7AA
:10202000C0B200280BD0022818D015D3042819D02C
:1020300016D306281AD017D3072819D01AE04FF460
:10204000807072B6C9B2002917D0DFF83C180A8830
:1020500032EA0000088015E08020F2E72020F0E757
:102060001020EEE70820ECE70420EAE70220E8E78A
:102070000120E6E740F2023006E0DFF80C180A889B
:102080001043088062B60020704710B511F0C00FF1
:1020900002D040F201301FE0C0B20028012806D96A
:1020A000801E052819D9801F072836D953E011F062
:1020B000FE0F02D040F201300EE08020C9B2C9010B
:1020C00072B6DFF8B4361A8832EA0000014319808C
:1020D00062B6FFF787FE002010BD0A00D2B2DFF81B
:1020E0009806008810F03F00130004009BB2A4B2D1
:1020F000A34202D240F20530EEE792B280B292FBE8
:10210000F0F300FB1320002802D04FF44170E3E706
:102110004FF47C50C9B20902D2E7DFF85C060088B0
:10212000C0F305220800C0B2130004009BB2A4B2A1
:10213000A34202D240F20530CEE792B280B292FBC7
:10214000F0F300FB1320002802D04FF44170C3E7E6
:102150003F20C9B2B4E740F20230BDE738B5020013
:10216000D2B2002A09D0022A21D017D3042A30D0B3
:1021700026D3062A37D031D307E00824DFF8F455F8
:102180004CF61432DFF8E8351A8072B60A00D2B283
:10219000002A42D02A8822432A8041E00424DFF822
:1021A000D4554CF61432DFF8C8351A80EDE7022416
:1021B000DFF8C0554CF61432DFF8B4351A80E4E786
:1021C0000124DFF8B0554CF61432DFF8A4351A803C
:1021D000DBE74FF40074DFF85056D6E74FF4007495
:1021E000DFF89855D1E7DFF8144900224FF4006179
:1021F000200001F062FA002802D040F211302EE0F7
:1022000001224FF40061200001F02BFA002802D0D7
:1022100040F2113023E0002021E02A88A2432A80E6
:1022200062B6C0B2012819D1C9B2002916D109205D
:1022300000F0A6FA0021009102E00099491C0091EB
:1022400000998142F9D372B64CF61430DFF82015AC
:102250000880288830EA04042C8062B6002032BD51
:102260002DE9F04105000C0000262800C0B200F066
:1022700059F9022847D02800C0B2052820D172B6EB
:10228000DFF8F874398811F03F084FF6C07001404C
:1022900051F03F0151F40071398062B6222000F004
:1022A0006FFA00E0401E0028FCD172B639884FF664
:1022B000C070014058EA0108A7F8008062B604E047
:1022C00001212800C0B2FFF749FF2000C0B200285A
:1022D00019D02000C0B2012802D143F6992400E0B1
:1022E000E4B2200000F04CFA040000E0641E002C70
:1022F00005D02800C0B200F015F90228F6D1002C54
:1023000001D14FF44276300000B2BDE8F08138B51B
:10231000040000252000C0B200280BD0022826D0DF
:102320006CD3042860D0C0F0B180062800F0EE80A5
:1023300063D3F4E00320FFF70CFE122802D140F231
:10234000093013E00020FFF704FE012807D1032025
:10235000FFF7FFFD132802D140F20A3006E000210A
:102360002000C0B2FFF7FAFE280000B232BD032001
:10237000FFF7EFFD112802D140F20930F6E7002007
:10238000FFF7E7FD002807D10320FFF7E2FD132840
:1023900002D140F20A30E9E7DFF86407018811F062
:1023A0006001202905D10088C00602D540F20B301B
:1023B000DCE7DFF85007018811F06001202905D122
:1023C0000088C00602D540F20B30CFE7DFF83807AF
:1023D000018811F06001202905D10088C00602D5CE
:1023E00040F20B30C2E7BAE70320FFF7B2FD132833
:1023F00002D140F20930B9E7B1E7B0E70120FFF7B9
:10240000A8FD032806D100F089F9002802D040F287
:102410000E30ABE7DFF8F4060068C00702D540F2E3
:102420000D30A3E7DFF8E806008880B210F4D06032
:10243000B0F5207F02D14FF4437097E7DFF8C00674
:10244000018811F06001602905D10088C00602D51D
:1024500040F20B308AE7DFF8AC06018811F060012A
:10246000602905D10088C00602D540F20B307DE717
:10247000DFF89406018811F06001602905D1008819
:10248000C00602D540F20B3070E768E70120FFF785
:1024900060FD022806D100F041F9002802D040F288
:1024A0000E3063E7DFF86806008880B210F4D06071
:1024B000B0F5906F02D14FF4437057E7DFF8400654
:1024C000018811F06001402905D10088C00602D5BD
:1024D00040F20B304AE7DFF82C06018811F060016A
:1024E000402905D10088C00602D540F20B303DE7F7
:1024F000DFF81406018811F06001402905D1008839
:10250000C00602D540F20B3030E728E70320FFF782
:1025100020FD142802D140F2093027E71FE740F2DE
:10252000023023E738B5002492490988C0B2002858
:1025300019D0022807D01ED3042832D00BD3062886
:1025400021D03BD347E0880704D5880501D5022474
:1025500000E0012440E0C80704D5C80501D50224E5
:1025600000E0012438E0080704D5080501D502245D
:1025700000E0012430E0480704D5480501D50224D5
:1025800000E0012428E0DFF87455280001F0C1F8CC
:10259000000505D4280001F0D0F8000500D402247D
:1025A0001AE0A1480088800507D5DFF86805008893
:1025B000C00701D5022400E001240DE06F48008827
:1025C000800507D5DFF84C050088C00601D5022438
:1025D00000E0012400E003242000C0B232BD70B549
:1025E0000C0015001E00C0B2042802D0052818D027
:1025F00020E00320FFF7ADFC132802D14FF4447014
:102600000EE0894840F2FF1236B2E4B23443EDB234
:102610002C4372B6018891430C43048062B60020BB
:1026200070BD564840F2FF1236B2E4B23443EDB208
:102630002C43EEE740F20230F2E7F0B4002400252C
:1026400012F0F80F02D040F2073054E0002903D115
:1026500054F00204DFF8C0140300DBB2002B05D0F5
:10266000022B05D004D3032B25D027E0002042E025
:1026700055F0040572B6DFF8A43444F659061E80FE
:102680004FF27B261E80DFF8986437884FF6FC7384
:102690001F40C0B238433080DFF888643068A4B28D
:1026A0000443ADB2AC433460EFF31183D2B25201B4
:1026B00082F3118810E054F00404DBE740F20630A6
:1026C00019E0DFF86404008810F00E0FF9D1BFF3B1
:1026D0004F8F30BF62B672B608780028F1D0002064
:1026E000087083F31188306830F002003060BFF367
:1026F0004F8F62B60020F0BC704700280BD1DFF886
:10270000180472B6DFF81C140A6832F002020A607C
:10271000BFF34F8F62B6012101707047DFF80C04E0
:102720000068000106D5DFF808040068C00701D57D
:10273000012015E0DFF8FC030088C00501D5012069
:102740000EE0DFF8F4030088800601D5012007E0E1
:10275000DFF8E8030088C00701D5012000E0002071
:10276000704700000000000008ED00E024ED00E0EC
:102770000C240040102400400480024010800240DD
:1027800010B504000920FFF709FC000D002801D056
:102790004443FFE7200010BDF8B5060000200024E8
:1027A000DFF89C53297800290AD100F045F8010090
:1027B000080009B2002901D000B233E001212970DC
:1027C000002100E0491D192906D2DFF8782312F80C
:1027D00031202B789A42F5D10A0000E0491C531DA4
:1027E00099420BDADFF85C3303EBC1077F78B4461C
:1027F0005FFA8CFC6745F1D103EBC104002C0ED0CD
:10280000A17800290BD06168002901D06068804759
:10281000010009B2002904D1A178297001E040F239
:10282000133000B2F2BD00000C8002400080024074
:102830007C0700200024F40038B50020C24D01219F
:102840000220FFF70DFD040000B2002802D0200096
:1028500000B217E01120FFF70BFB0021280000F069
:1028600031F900210120FFF710FC0520FFF74FFD93
:102870000420FFF74CFD0020FFF749FDFFF7B2FAF7
:10288000200000B232BD000014800240800700200A
:102890008407002038B50020AC4C0020FFF759FB1E
:1028A000012804D101210020FFF7DAFC03E0012117
:1028B0000220FFF7D5FC010009B2002901D000B2C7
:1028C0005AE00320FFF745FB132821D1A0480188D7
:1028D00011F0C001802907D1018811F03F011029B2
:1028E00002D10088C0051AD40020FFF732FB01286E
:1028F00003D11220FFF7BCFA02E01120FFF7B8FA6B
:102900004FF48073102280210420FFF768FE06E058
:102910004FF48073102280210420FFF760FE012114
:102920000420FFF79DFC050000B2002802D028001B
:1029300000B221E00121200000F0C4F81320FFF7CD
:1029400097FA0021200000F0BDF80520FFF7DFFC1A
:102950000020FFF7FEFA012803D10220FFF7D7FC81
:1029600002E00020FFF7D3FC00210120FFF78DFBE0
:10297000FFF738FA280000B232BD10B50020754CC0
:102980000020FFF7E6FA012804D101210020FFF71B
:1029900067FC03E001210220FFF762FC010009B29D
:1029A000002901D000B268E00320FFF7D2FA132813
:1029B00021D16748018811F0C001802907D1018821
:1029C00011F03F01102902D10088C0051AD400205F
:1029D000FFF7BFFA012803D11220FFF749FA02E0FE
:1029E0001120FFF745FA4FF4807310228021042054
:1029F000FFF7F5FD06E04FF48073102280210420DC
:102A0000FFF7EDFD01210420FFF72AFC010000B2D1
:102A1000002802D0080000B22FE00121200000F0C1
:102A200051F81320FFF724FA0021200000F04AF8A3
:102A300001210120FFF729FB00230F22802105201F
:102A4000FFF7CDFD01210520FFF70AFC040000B2CD
:102A5000002802D0200000B20FE00020FFF779FA32
:102A6000012803D10220FFF752FC02E00020FFF70B
:102A70004EFCFFF7B7F9200000B210BD00879303AA
:102A800038B50024344D0020FFF763FA012803D144
:102A90001220FFF7EDF902E01120FFF7E9F900211C
:102AA000280000F00FF800210120FFF7EEFA0520C2
:102AB000FFF72DFC0420FFF72AFCFFF793F9200015
:102AC00000B232BDC9B200290CD024490A8812F0E4
:102AD0003F0203789A4205DB0988C1F30521427859
:102AE000914209DA017811F03F014078000210F4B8
:102AF0007C500143194801807047000000000240EB
:102B0000080000400804004008080040002600407B
:102B1000082500401880024093070020042400404C
:102B20000024004010ED00E09825004008400840D7
:102B300000400840005C00408825004000800040C4
:102B400094070020208300006E0200207002002005
:102B50000C800240720200207602002004800240B5
:102B600080B56946002002F077FE002802D01648A2
:102B700000F012F80021009802F0D3FE002802D0E5
:102B8000124800F009F8009802F0B2FE002802D0C6
:102B90000F4800F001F801BD1FB5040001A80D4960
:102BA000D1E90023C0E9002368460B490A680260A6
:102BB00001A802F01FFF200002F01CFF684602F08F
:102BC00019FF00F00BF81FBDF88A00000890000004
:102BD000849000007C920000A892000080B5002044
:102BE00002F01CFF01BD30B4002513E050F8042BA7
:102BF000D30744BFA9F101039A18091F042942F819
:102C0000045BFAD213468C0744BF15809B1CC9078E
:102C100048BF1D7050F8041B0029E7D130BC704735
:102C20004FF4204001490860002070470000024036
:102C300062F30F2262F31F42401810F0030308D022
:102C4000C91A1FD3DB0748BF00F8012D28BF20F8A1
:102C5000022D130030B414461546103928BF20E960
:102C60003C00FAD8490728BF20E90C0048BF40F8CB
:102C7000042D890028BF20F8022D48BF00F8012D3F
:102C800030BC7047C91818BF00F8012DCB0728BF0A
:102C900000F8012D7047034600E05B1C1A78002AFB
:102CA000FBD111F801CB83F800C013F8012B002AE7
:102CB000F7D17047012210F01F018A40DFF8481851
:102CC00040B2400941F820207047012210F01F0156
:102CD0008A40DFF8381840B2400941F82020704798
:102CE0008A0702D5828F521C82874A0702D5428FFB
:102CF000521C42870A0702D5028F521C028711F02C
:102D00000E01C172704710B5DFF8044861680020F9
:102D100060680089C20760D4C0B210F00600C0B27B
:102D2000002852D002282FD004280DD0062850D1D8
:102D3000898A208E401C208611F00E0F03D0C9B264
:102D40002000FFF7CDFF44E014F11400428903890D
:102D50009A4205D1B4F84000401CA4F84000FEE7B8
:102D6000828803899A4201D1002282800988828860
:102D7000531C8380036892B299544189491C418154
:102D8000A08D401CA08524E0E08D401CE08514F15E
:102D90002000C28803899A4201D30022C28042895E
:102DA00003899A420BD2C1884A1CC280026889B248
:102DB000515C626811804189491C418104E08A8824
:102DC0004FF6FD7002408A8003E0608E401C6086F2
:102DD000FFE714F11100FFF790FC10BD2DE9F04161
:102DE00004000D0016000020A07A002846D0002024
:102DF000002014F11407B7F90810B7F90600081AF3
:102E00003100020009B212B2914201DA3000FFE74C
:102E1000002108E0FA88531CFB803B6892B29A5C60
:102E20002A706D1C491C0A00030012B21BB29A42A0
:102E3000F0DB0100320009B212B2914213DA301A0B
:102E40000021F980002108E0FA88531CFB803B68D0
:102E500092B29A5C2A706D1C491C0A00030012B2DF
:102E60001BB29A42F0DB94F90000FFF72EFF78893D
:102E7000801B788194F90000FFF71CFFA07A0028DE
:102E80001AD1002712E06068B0F8148018F00E0F15
:102E900004D04146C9B22000FFF722FF5FEAC870A4
:102EA000F1D56068008828706D1C7F1C38003100E7
:102EB00000B209B28842E6DB0020BDE8F081F8B537
:102EC00004000D001600A07A002851D00020002038
:102ED000002014F12007B7F90810B7F90400081A08
:102EE0003100020009B212B2914201DA3000FFE76C
:102EF00000210AE0BA88531CBB802B78D7F800C0A9
:102F000092B20CF802306D1C491C0A00030012B288
:102F10001BB29A42EEDB0100320009B212B29142BA
:102F200015DA301A0021B98000210AE0BA88531C52
:102F3000BB802B78D7F800C092B20CF802306D1C21
:102F4000491C0A00030012B21BB29A42EEDB94F94C
:102F50000000FFF7BAFE7889801B7881606880885E
:102F600050F002006168888094F90000FFF7A2FE2B
:102F7000A07A00280ED1002008E06168898A8906BD
:102F8000FBD52978626811806D1C401C310009B2A4
:102F90008842F2DB0020F2BDF8B5050016001C00E7
:102FA0004FF45061A87A00282ED02000C0B200282B
:102FB00002D015F1140701E015F12007287A002846
:102FC00013D03889B6F90010884208DA40F6085163
:102FD0000BE0002215F111010120FFF72EFB78898B
:102FE000B6F900108842F4DB0021287A00280BD1C2
:102FF000B7F90A000100B6F9002009B2914201DBDD
:10300000B6F9000030800021A87A002819D1287A6A
:10301000002800D00021287A002812D1E4B2002C28
:1030200004D06868808A10F0010003E06868808A34
:1030300010F02000002801D0012000E000203080A6
:103040000021080000B2F2BD10B5040094F90000A0
:10305000FFF73BFE00206083002020830020E083F8
:103060000020E0840020A084208D608594F9000079
:10307000FFF720FE10BD70B50C00002100250021D7
:1030800021600100C9B2022902D340F6035047E093
:10309000DFF87C34C0B24421484303EB000670786B
:1030A000002802D040F601503AE0002A1AD01068F9
:1030B000002808D09088002805D09068002802D009
:1030C000D088002802D140F6085029E00020707412
:1030D000106870619088B08390683062D0883085C5
:1030E0000120B0723000FFF7AFFF01207070317C1B
:1030F000300000F0BAF8B08971688881F089716891
:103100000882266001210320FEF78AFF01207168F2
:1031100081F8300096F90000FFF7CCFD280000B2DE
:1031200070BD10B50400DFF8E803844202D040F619
:10313000025018E06078012802D040F6065012E0F4
:1031400094F90000FFF7C1FD00210320FEF768FF9E
:10315000606890F8300050F00100616881F830003C
:1031600000206070002010BD70B506000C00150036
:103170004FF45060DFF89803864202D040F60250C8
:1031800021E07078012802D040F606501BE0002CA8
:1031900005D0002D03D0B5F90000012802DA40F671
:1031A000045010E000232A0021003000FFF7F4FE55
:1031B000010009B2002905D1B5F900202100300035
:1031C000FFF77DFE00B270BD70B506000C00150063
:1031D0004FF45060DFF83803864202D040F60250C8
:1031E00021E07078012802D040F606501BE0002C48
:1031F00005D0002D03D0B5F90000012802DA40F611
:10320000045010E001232A0021003000FFF7C4FE23
:10321000010009B2002905D1B5F9002021003000D4
:10322000FFF7DCFD00B270BD80B5DFF8E412884224
:1032300002D040F6025017E04178012902D040F652
:10324000065011E04168898AC90701D5416809889B
:10325000416891F83010C90703D44168898A49064A
:10326000F6D5FFF7F1FE002002BD38B5A0B004008E
:103270000D006846DFF89C12802202F0E1FBDFF8C7
:103280009002844202D040F6025025E06078012886
:1032900002D040F606501FE02800C0B2072802DB2B
:1032A00040F6045018E00420FEF778FEDFF86812BC
:1032B000884213D16946EDB20620454301EB050073
:1032C0000188626811858188408851EAC02151F4E3
:1032D000004160688184002021B030BDDFF83C12DD
:1032E000884207D16946EDB20620454301EB05004F
:1032F0002A30E5E7DFF82812884207D16946EDB2A7
:103300000620454301EB05005430D9E740F6045050
:10331000E2E770B505000C004FF45060DFF8F001F3
:10332000854202D040F602503AE06878012802D087
:1033300040F6065034E0002C02D140F604502FE055
:1033400021782800FFF791FF010009B2002901D080
:1033500000B225E0A178280000F051F8010009B280
:10336000002901D000B21BE06178280000F019F8B4
:10337000010009B2002901D000B211E0E178280073
:1033800000F0A9F80600300000B2002802D030009A
:1033900000B205E02179280000F070F8300000B29A
:1033A00070BD5B4A904202D040F602500EE0C9B2B6
:1033B000002903D0022918D009D31DE041688A8969
:1033C0004FF6C7710A40406882810020704741680B
:1033D0008A894FF6CF710A4041688A81416889899C
:1033E00051F0080140688181EFE74168898951F017
:1033F000380140688181E8E740F60450E6E7444A36
:10340000904202D040F6025015E00A00D2B2002AE3
:10341000032A0ED8426893894FF6FC721340426823
:10342000938142689289C9B211434068818100202A
:1034300001E040F60450704780B5354A904202D012
:1034400040F6025019E00A00D2B2002A08D04268C1
:1034500092F8302012F0FE02406880F8302007E039
:10346000426892F8302052F00102406880F8302023
:10347000C9B20320FEF7D4FD002002BD244A9042C9
:1034800002D040F6025025E00A00D2B2002A08D04D
:103490004269002A02D0026A002A02D140F608508E
:1034A00018E08172C9B2002906D04168898851F0BC
:1034B00001014268918006E041688A884FF6FE71FA
:1034C0000A4041688A804168898851F00401406857
:1034D0008180002070470E4A904202D040F6025090
:1034E00001E001720020704702000020917A00295B
:1034F00001D0B2F91E00917A002903D15068808A68
:1035000010F0010080B2704700E100E080E100E0CF
:1035100078020020E88300000024F40040420F00FD
:10352000002D310110B40020DFF8C02311684B1CBE
:10353000136000290CD1002108E0002302EBC10434
:103540006360002302EBC104A360491C0B29F4DB78
:1035500000B210BC70470020DFF8902311680029EA
:1035600002D140F6026002E01168491E116000B20B
:10357000704700B585B06846DFF87413142202F076
:103580005FFADFF868030068002802D140F60260A5
:103590001EE0002119E0002202810DE0684650F88B
:1035A00021000022026000228280DFF8482390423E
:1035B000F1D14FF4707202810022828400220285D0
:1035C0000022828500220286491C0529E6D30020BC
:1035D00005B000BD10B50400DFF810030068002836
:1035E00002D140F602600FE0200040B200F08FF9F7
:1035F000002802D140F6066006E00121601E8140ED
:10360000DFF8F4020180002010BD70B505000E0047
:103610001400DFF8D8020068002802D140F60260EA
:103620001EE0280000F052F9002802D140F60360A5
:1036300016E0300080B200F063F9002802D140F6B5
:1036400005600DE072B6E4B2002C03D0A8880643F2
:10365000AE8003E0A88830EA0606AE8062B600209D
:1036600070BD70B505000E001400DFF88002006820
:10367000002802D140F602601EE0280000F026F982
:10368000002802D140F6036016E0300080B200F05E
:1036900037F9002802D140F605600DE072B6E4B2B9
:1036A000002C03D0A8890643AE8103E0A88930EA44
:1036B0000606AE8162B6002070BD70B505000E0032
:1036C0001400DFF828020068002802D140F60260EA
:1036D0001EE0280000F0FAF8002802D140F603604E
:1036E00016E0300080B200F00BF9002802D140F65D
:1036F00005600DE072B6E4B2002C03D028890643C1
:103700002E8103E0288930EA06062E8162B6002069
:1037100070BD10B50400DFF8D4010068002802D1A4
:1037200040F6026008E0200000F0D0F8002802D146
:1037300040F6036000E0A08810BD10B504006B489F
:103740000068002802D140F6026008E0200000F086
:10375000BDF8002802D140F6036000E0208910BDCA
:1037600038B504000D0061480068002802D140F619
:10377000026012E0200000F0A9F8002802D140F613
:1037800003600AE0280080B200F0BAF8002802D1F5
:1037900040F6056001E02583002032BD38B5040005
:1037A0000D0052480068002802D140F6026012E085
:1037B000200000F08BF8002802D140F603600AE0F8
:1037C000280080B200F09CF8002802D140F6056085
:1037D00001E0A583002032BD30B585B00C0043491F
:1037E000C0B201EBC000051D68464449142202F036
:1037F00027F92868002805D00022210049B268680E
:103800002B689847200040B22F38012816D8002393
:1038100011E0888D07E0684650F82310200040B280
:103820002F28F6D1088D0A8E0240100080B20028A1
:1038300000D00A865B1C052BEDD303E0200040B2CC
:10384000FFF7C8FE05B030BD80B501210020FFF7AD
:10385000C3FF01BD80B502210120FFF7BDFF01BDFF
:1038600080B503210220FFF7B7FF01BD80B5042119
:103870000320FFF7B1FF01BD80B505210420FFF74C
:10388000ABFF01BD80B506210520FFF7A5FF01BDF7
:1038900080B507210620FFF79FFF01BD80B50821F5
:1038A0000720FFF799FF01BD80B509210820FFF728
:1038B00093FF01BD80B52F210920FFF78DFF01BDCA
:1038C00080B530210A20FFF787FF01BD0949401A62
:1038D00007D0403805D0403803D0403801D04038B8
:1038E00001D1012000E0002070470000C406002044
:1038F000B49000000000024030240040C890000056
:1039000080B2002801D0012000E00020704740B2C2
:10391000401E082802D92E38012801D8012000E0D5
:1039200000207047012210F01F018A40DFF83C1888
:1039300040B2400941F820207047012210F01F01D9
:103940008A40DFF8AC1840B2400941F820207047A7
:1039500010B50400200000F011FD002802D041F253
:1039600001502AE0200000F017FD002802D041F2AB
:10397000025022E0DFF87C080088000602D541F200
:1039800004501AE00D20FEF709FBDFF86C1888429E
:1039900002D041F2055010E072B66078002802D0E3
:1039A0004FF4006000E0002050F00800E1688968F2
:1039B0000843E168886062B6002010BD10B50400BD
:1039C000200000F0DBFC002802D041F2015023E08F
:1039D000200000F0E1FC002802D041F202501BE080
:1039E000DFF810080088000602D541F2045013E009
:1039F0000D20FEF7D3FADFF80018884202D041F21A
:103A0000055009E072B6E0688168DFF8F007014010
:103A1000E068816062B6002010BD38B504000D007A
:103A2000200000F0ABFC002802D041F201501CE065
:103A3000200000F0B1FC002802D041F2025014E056
:103A4000DFF8B0070088000602D541F204500CE010
:103A50000D20FEF7A3FADFF83819884202D041F2B0
:103A6000055002E0E068C560002032BDF8B50400F2
:103A70000E0017000025200000F080FC002802D076
:103A800041F2015027E0200000F086FC002802D01F
:103A900041F202501FE0DFF85C070088000602D503
:103AA00041F2045017E00D20FEF778FADFF84817CE
:103AB000884202D041F205500DE072B6DFF8D4081A
:103AC000E168C1F8000137600020E168C1F8000139
:103AD00062B6280000B2F2BDF8B506000F0015006E
:103AE0000024300000F04AFC002802D041F20150CE
:103AF0001FE0300000F050FC002802D041F20250DC
:103B000017E0DFF8F0060088000602D541F2045005
:103B10000FE00D20FEF742FADFF87418884202D059
:103B200041F2055005E072B63868286062B62000A0
:103B300000B2F2BDF8B504000025666CA76C200049
:103B400000F01CFC002802D041F2015043E0DFF8F5
:103B5000A4060088000602D541F204503BE00B2089
:103B60003070002070700220B070E0687030F0603B
:103B700002203074032070740020B0740020F074B0
:103B8000012030750C203870002078700120B8704A
:103B9000E0686C30B860012078740320387400202D
:103BA000B8740020F8740120387500210B2001F052
:103BB0008BFF002801D041F20B55280000B20028ED
:103BC00007D100210C2001F07FFF002801D041F235
:103BD0000B55280000B2F2BD38B5040000252000C6
:103BE00000F0CCFB002802D041F201502BE0200075
:103BF00000F0D2FB002802D041F2025023E0DFF8AF
:103C0000F4050088000602D541F204501BE00D20A7
:103C1000FEF7C4F9DFF8E015884202D041F2055002
:103C200011E072B66078002802D04FF4805000E0B6
:103C3000002050F01000E16889680843E16888605E
:103C400062B6280000B232BD38B50400002520005D
:103C500000F094FB002802D041F2015024E0200043
:103C600000F09AFB002802D041F202501CE0DFF87D
:103C700084050088000602D541F2045014E00D20AE
:103C8000FEF78CF9DFF87015884202D041F205503A
:103C90000AE072B6E0688168DFF8C0070140E068BA
:103CA000816062B6280000B232BD10B50400200069
:103CB00000F064FB002802D041F201501DE020001A
:103CC00000F06AFB002802D041F2025015E0DFF854
:103CD00024050088000602D541F204500DE00B20B7
:103CE00001F085FF002804D10C2001F080FF00289E
:103CF00002D041F20B5000E0002010BD2DE9F04150
:103D000005000C0016000027D5F84480280000F0BC
:103D100035FB002802D041F2015033E0280000F0CA
:103D20003BFB002802D041F202502BE0DFF8C40434
:103D30000088000602D541F2045023E00D20FEF772
:103D40002DF9DFF84C16884202D041F2055019E0F7
:103D5000002C0BD0C8F80840C8F80460404601F0B9
:103D600076FF002809D041F20B5706E0404602F0EA
:103D70000AF8002801D041F20B57002085F84C00CA
:103D8000380000B2BDE8F0812DE9F04105000C00DB
:103D900016000027D5F84880280000F0EFFA002828
:103DA00002D041F2015035E0280000F0F5FA002879
:103DB00002D041F202502DE0DFF8380400880006FE
:103DC00002D541F2045025E00D20FEF7E7F8DFF8B8
:103DD000C015884202D041F205501BE0002C0DD0E6
:103DE000C8F80C40C8F80460404601F030FF0028D5
:103DF00001D041F20B57A5F8546006E0404601F0AF
:103E0000C2FF002801D041F20B57002085F84D0079
:103E1000380000B2BDE8F08110B4002216E003784B
:103E20005B00037010E00B001B0E13F0800304789E
:103E300014F0800494EA030FF1D003785B00037060
:103E4000037893F0070303704900521C1300DBB2A0
:103E5000202BE8DB10BC70477CB504000D0001206E
:103E60008DF80000002605E054F826106846FFF79C
:103E7000D3FF761CAE42F7D39DF8000076BD38B56F
:103E800004000D00200000F079FA002802D041F271
:103E900001501CE0200000F07FFA002802D041F21F
:103EA000025014E0DFF84C030088000602D541F20E
:103EB00004500CE00D20FEF771F8DFF8D4148842AE
:103EC00002D041F2055002E0E0792870002032BDB6
:103ED00038B505000C00280000F050FA002802D088
:103EE00041F2015025E0280000F056FA002802D0E7
:103EF00041F202501DE0DFF8FC020088000602D506
:103F000041F2045015E00D20FEF748F8DFF8801468
:103F1000884202D041F205500BE06878002803D0B7
:103F200095F84D00002801D0012000E0002020700D
:103F3000002032BD2DE9F04105000E0090461C0026
:103F40000027280000F01AFA002802D041F20150A0
:103F500068E0280000F020FA002802D041F2025068
:103F600060E0A4480088000602D541F2045059E000
:103F70000D20FEF713F8A049884202D041F2055007
:103F800050E0002C22D001206870C5F85080B5F8B0
:103F90005800A04208D3220041462800FFF7F4FE53
:103FA0000020A5F856000DE0B5F85820414628003D
:103FB000FFF7EAFEB5F85800241AA5F8564000208D
:103FC000A5F85C002020FFF7ADFC04E0002068703D
:103FD000012085F84D003268120C311D2800FFF7D2
:103FE0008DFE1F20FFF79EFC0020A8710020E871C5
:103FF0000020A8800020E96848662800FFF7A8FC98
:104000002800FFF7E9FD72B689220321280000F09D
:1040100027FB012389220321280000F0BFFA62B6A2
:10402000380000B2BDE8F08138B505000024280052
:1040300000F0A4F9002802D041F2015022E028004B
:1040400000F0AAF9002802D041F202501AE06948B3
:104050000088000602D541F2045013E00D20FDF760
:104060009DFFDFF82C13884202D041F2055009E091
:1040700072B6E868406850F00100E968486062B6CE
:10408000200000B232BD38B504000025200000F049
:1040900075F9002802D041F201502FE0200000F015
:1040A0007BF9002802D041F2025027E051480088F5
:1040B000000602D541F2045020E00D20FDF76EFF0E
:1040C0004D49884202D041F2055017E0E06840684F
:1040D000C00701D541F20F55280000B2002803D1D6
:1040E0002000FFF76BFC0500280000B2002803D178
:1040F0002000FFF7A9FD0500280000B232BD38B549
:1041000004000025200000F039F9002802D041F217
:10411000015029E0200000F03FF9002802D041F2D0
:10412000025021E033480088000602D541F20450D5
:104130001AE00D20FDF732FF2F49884202D041F2EC
:10414000055011E0E068406840084000E1684860C0
:104150002000FFF779FDE0680168DFF8FC07014007
:10416000E0680160280000B232BD000000E100E01C
:1041700070B504000D000026200000F0FFF80028B4
:1041800002D041F2015031E0200000F005F9002892
:1041900002D041F2025029E016480088000602D5FC
:1041A00041F2045022E00D20FDF7F8FE78498842E4
:1041B00002D041F2055019E0207A002805D0296884
:1041C000090C281DFFF748FE00E02868E168096E29
:1041D000C0B2814205D1E068406E2968B0EB114F52
:1041E00002D041F2105001E0300000B270BD00007A
:1041F00080E100E0148002400024F400F7F7FFFFA4
:10420000F8B504000D0016001F000020200000F08B
:10421000B5F8002802D041F20150A9E0200000F0DA
:10422000BBF8002802D041F20250A1E0DFF85407A9
:104230000088000602D541F2045099E00D20FDF7F8
:10424000ADFE5349884202D041F2055090E03B0058
:10425000320029002000FFF76DFE060000B20028A2
:1042600005D02000FFF74BFF300000B280E00120B6
:10427000A070A079002803D1B4F904000028F8D078
:10428000B4F90400002805D02000FFF738FFB4F986
:1042900004006DE00220A070002020762000FFF7CF
:1042A000C3FE060000B2002805D02000FFF727FF5C
:1042B000300000B25CE00320A070607A002855D086
:1042C000002214F118010120FEF7B7F972B60020A0
:1042D0008DF8000069462000FFF7FAFD010009B2E1
:1042E000002907D19DF80010002903D0694620005D
:1042F000FFF7C5FD010009B2002905D19DF80010A6
:10430000002901D10021217662B600B2002807D130
:104310009DF80000002803D1B4F904000028CFD094
:104320000420A070B4F90400002805D02000FFF795
:10433000E6FEB4F904001BE02000FFF7A4FE06002F
:1043400000B2002805D02000FFF7D9FE300000B2EF
:104350000EE00020A07029002000FFF709FF0600F2
:1043600000B2002802D0300000B201E0300000B2FC
:10437000F2BD02000020117200B27047DFF8F8169B
:104380000968814202D041F2015000E000207047EC
:104390000024F400AFA587DE0078002802D141F2A6
:1043A000025000E00020704738B504000D002000E6
:1043B000FFF7E4FF002802D041F2015009E020009D
:1043C000FFF7EAFF002802D041F2025001E0256128
:1043D000002032BD38B504000D002000FFF7CEFFED
:1043E000002802D041F201500AE02000FFF7D4FF7C
:1043F000002802D041F2025002E02069286000202B
:1044000032BD38B504000D002000FFF7B7FF0028CB
:1044100002D041F2015009E02000FFF7BDFF002863
:1044200002D041F2025001E06561002032BD38B592
:1044300004000D002000FFF7A1FF002802D041F288
:1044400001500AE02000FFF7A7FF002802D041F248
:10445000025002E060692860002032BDEFEFFFFFEC
:1044600038B50400002000202060DFF80C06056845
:104470002800FFF791FF002802D141F203504FE0DE
:104480004FF47A70286141F64C506861DFF8F0050E
:10449000E86001210120FDF7C3FD3220FFF742FA59
:1044A0003320FFF73FFA3420FFF73CFA3520FFF7BF
:1044B00039FADFF8D0056864DFF8CC05A8644FF45A
:1044C0008060A5F858000020A5F85A000020A5F843
:1044D0005600002028650020A5F85400002028720E
:1044E0000020A870012068720020E8610020286286
:1044F000002068620020E862002068630020E86312
:10450000002028762800FFF715FB0100080009B2FB
:10451000002901D000B203E001212970256000B21A
:1045200032BD38B5040000252000FFF727FF002822
:1045300002D041F2015030E02000FFF72DFF0028AB
:1045400002D041F2025028E03220FFF7F6F9332082
:10455000FFF7F3F93420FFF7F0F93520FFF7EDF915
:10456000002060640020A0642000FFF79EFB002074
:10457000A0700020E0610020206200206062002026
:10458000E062002060630020E063002020700021D2
:104590000120FDF745FD280000B232BD2DE9F047AE
:1045A00082460F0090461C0000255046FFF7E6FEAD
:1045B000002802D041F2015050E05046FFF7ECFED7
:1045C000002802D041F2025048E0DFF8B80300882A
:1045D000000602D541F2045040E00D20FDF7DEFC5C
:1045E000DFF89814884202D041F2055036E0FFB25D
:1045F000012F06D014D3032F0BD006D3042F0CD0D9
:104600000EE0DFF8889432260AE0DFF8849433263F
:1046100006E0DFF88094342602E0DFF87C9435264B
:10462000E4B2002C0AD0D9F8000058EA0008C9F812
:104630000080300040B2FFF775F90DE0D9F80000B6
:1046400030EA0808C9F80080D9F80000002803D132
:10465000300040B2FFF771F9280000B2BDE8F087E2
:10466000F8B506000F00150000243000FFF786FEA5
:10467000002802D041F2015034E03000FFF78CFEF8
:10468000002802D041F202502CE0DFF8F802008846
:10469000000602D541F2045024E00D20FDF77EFC17
:1046A000DFF8D813884202D041F205501AE0FFB279
:1046B000012F06D014D3032F0BD006D3042F0CD018
:1046C0000EE0DFF8D80305600AE0DFF8D4030560E8
:1046D00006E0DFF8D003056002E0DFF8CC030560F8
:1046E000200000B2F2BD70B5DFF88C03046800252D
:1046F0000026E068D0F8A000E168D1F88C1010F036
:10470000010211F00103D2B21A4201D055F00105A5
:10471000820703D58A0701D555F00205420703D564
:104720004A0701D555F00405020703D50A0701D54C
:1047300055F00805C20603D5CA0601D556F0100685
:10474000820603D58A0601D556F02006400603D519
:10475000480601D556F04006606A002809D056EA9E
:104760000500A16A084204D0002200212000636AEB
:1047700098470023320001212000FFF70FFF2A0095
:1047800001212000FFF76CFF70BD38B5BA480468FE
:104790000025E068D0F8A400E168D1F8901010F08E
:1047A000010211F00103D2B21A4201D055F0010505
:1047B000820703D58A0701D555F00205420703D5C4
:1047C0004A0701D555F00405000703D5080701D5B0
:1047D00055F00805E06A002807D0206B054204D098
:1047E000002200212000E36A98472A0002212000CD
:1047F000FFF736FF31BD70B59F48046800250026DD
:10480000E068D0F8A800E168D1F8941010F0010237
:1048100011F00103D2B21A4203D055F00105012272
:10482000E271820703D58A0701D555F002054207D8
:1048300003D54A0701D555F00405020705D50A0737
:1048400003D556F008060122A271C20603D5CA0696
:1048500001D556F01006820603D58A0601D556F01A
:104860002006420606D54A0604D555F0400541F219
:104870000852A280000606D5080604D555F080052A
:1048800041F20750A08014F11800FDF736FF606B6D
:1048900000280AD056EA0500A16B084205D0002284
:1048A00056EA05012000636B98470023320003217C
:1048B0002000FFF773FE2A0003212000FFF7D0FE3F
:1048C00070BD70B56C48046800250026E068D0F81B
:1048D000AC00E168D1F8981010F0010211F001036A
:1048E000D2B21A4201D056F00106820703D58A07D8
:1048F00001D556F00206420703D54A0701D556F006
:104900000406020706D50A0704D555F0080541F24A
:104910000A52A280C00606D5C80604D555F0100577
:1049200041F20950A080E06B002809D056EA05004A
:10493000216C084204D0002200212000E36B98473C
:104940000023320004212000FFF728FE2A00042162
:104950002000FFF785FE70BDFF1EFEFF10B5464824
:1049600004681F20FEF7E9FF012084F84C000120B5
:10497000A071E069002804D0002200212000E36932
:10498000984710BD14800240F8B53B480468B4F85D
:104990005450B4F8560000284FD0B4F85C000028FA
:1049A00020D0206DB4F8581000EB4106206D3F492F
:1049B0000860B4F85800B4F85610884205D3B4F82B
:1049C00056200020A4F8560008E0B4F85820B4F8A7
:1049D0005610B4F85800091AA4F856100020A4F88C
:1049E0005C0020E0266D206DB4F8581000EB41000B
:1049F0002E490860B4F85A00B4F85610884205D31E
:104A0000B4F856200020A4F8560008E0B4F85A2064
:104A1000B4F85610B4F85A00091AA4F85610B4F8AD
:104A20005A00A4F85C0092B2204801682000FFF709
:104A3000ABF901201E4908700FE01D4F387800289F
:104A400002D01A48066800E0266D2020FEF775FFA8
:104A5000012084F84D000020387014F11800FDF793
:104A60004CFE206A002805D03200ADB2290020009B
:104A7000236A9847F1BD0000949200000024F400DE
:104A80000000084020070020380700208C00084064
:104A9000900008409400084098000840A00008409A
:104AA000A4000840A8000840AC000840700700209F
:104AB0009207002010B504002000FFF75FFC0028DB
:104AC00002D041F2015021E02000FFF765FC0028F0
:104AD00002D041F2025019E0DFF85C0500880006C0
:104AE00002D541F2045011E00D20FDF757FADFF82E
:104AF0004C15884202D041F2055007E00023002205
:104B0000DFF83C152000FFF77BFB00B210BD38B585
:104B1000040000202000FFF731FC002802D041F201
:104B2000015059E02000FFF737FC002802D041F285
:104B3000025051E0DFF800050088000602D541F27E
:104B4000045049E00D20FDF729FADFF8F0148842FF
:104B500002D041F205503FE002236A46DFF8E41438
:104B60002000FFF74DFB010009B2002933D169464F
:104B70005FF080424B88BDF800001B1A92FBF3F5F2
:104B80006D1C6D084888BDF80020821ADFF8B80453
:104B900042431213521C5210BDF80000B2EB8002C7
:104BA00012F50032DFF8A4142000FEF75FFF0100C9
:104BB00000B2002802D0080000B20DE02A00DFF8A1
:104BC00090142000FEF752FF0100080009B20029EE
:104BD00001D000B200E000B232BD3EB504000020BA
:104BE0002000FFF7CBFB002802D041F2015052E039
:104BF0002000FFF7D1FB002802D041F202504AE02A
:104C0000DFF834040088000602D541F2045042E087
:104C10000D20FDF7C3F9DFF82414884202D041F2D9
:104C2000055038E003236A46DFF828142000FFF718
:104C3000E7FA010009B200292CD1DFF81C14BDF8F5
:104C40000420BDF80200121A91FBF2F5E80702D524
:104C50006D086D1C00E06D08BDF80020D2F5004223
:104C60009200DFF8F8132000FEF700FF010000B209
:104C7000002802D0080000B20DE02A00DFF8E0139F
:104C80002000FEF7F3FE0100080009B2002901D060
:104C900000B200E000B23EBD10B5040000202000CC
:104CA000FFF76CFB002802D041F2015021E0200008
:104CB000FFF772FB002802D041F2025019E0DFF842
:104CC00078030088000602D541F2045011E00D205F
:104CD000FDF764F9DFF86413884202D041F2055011
:104CE00007E000230022DFF87C132000FFF788FA9A
:104CF00000B210BD2DE9F0478CB004000020200068
:104D0000FFF73CFB002802D041F20150E6E0200012
:104D1000FFF742FB002802D041F20250DEE0DFF84C
:104D200018030088000602D541F20450D6E00D2099
:104D3000FDF734F9DFF80413884202D041F2055040
:104D4000CCE002A92000FFF745FB010000B20028DB
:104D500002D0080000B2C1E001A92000FFF767FB04
:104D6000010000B2002802D0080000B2B6E0694697
:104D7000200000F099F9010000B2002802D00800DC
:104D800000B2ABE0DFF8E0824FF480424146200001
:104D9000FEF76CFEDFF8D492002249462000FEF7B1
:104DA00065FE002007E0DFF8C81251F8201003AAC2
:104DB00042F82010401C0928F5D3009810F12A4031
:104DC000059001212000FFF7D4FA0023002203A957
:104DD0002000FFF715FA824600212000FFF7C9FAEC
:104DE000504600B2002812D1DFF888020568D5F5D8
:104DF0000045AD002A0049462000FEF737FE00239B
:104E00000022DFF874122000FFF7FAF982465046BC
:104E100000B2002815D1DFF85C020068B0F5004050
:104E2000DFF85812B1FBF0F6320041462000FEF7E1
:104E30001DFE00230022DFF848122000FFF7E0F9F2
:104E40008246504600B200280CD1DFF828020768DD
:104E5000B7F5004700230022DFF828122000FFF7F3
:104E6000CFF98246504600B2002817D1DFF804027D
:104E70000268D2F5004292004FF480404543B5FBF2
:104E8000F6F0821849462000FEF7F0FD00230022CC
:104E9000DFF8F4112000FFF7B3F98246504600B264
:104EA000002819D1DFF8CC010168D1F50041019A41
:104EB0004FF4804042430298B2FBF0F007FB00F74A
:104EC000B7FBF1F006FB00F616F50056B60B320004
:104ED00041462000FEF7CAFD504600B20CB0BDE8C6
:104EE000F087F8B5040000202000FFF747FA0028FB
:104EF00002D041F2015063E02000FFF74DFA002894
:104F000002D041F202505BE0DFF82C01008800067D
:104F100002D541F2045053E00D20FDF73FF8DFF8D1
:104F20001C11884202D041F2055049E0DFF85C5183
:104F30004FF4206229002000FEF798FD0023002294
:104F4000DFF84C112000FFF75BF9010009B20029DE
:104F500001D000B234E0DFF81C713868ADF8000011
:104F60004FF4C06229002000FEF780FD00230022DC
:104F7000DFF820112000FFF743F90600300000B2EF
:104F8000002802D0300000B21AE06A46386850802B
:104F9000BDF80010D1F500414FF4C06041438900D5
:104FA0005288BDF80000121A91FBF2F2B2F540628D
:104FB000521C521029002000FEF758FD300000B2AC
:104FC000F2BD38B5040000202000FFF7D7F9002813
:104FD00002D041F201502DE02000FFF7DDF900285A
:104FE00002D041F2025025E013480088000602D5A5
:104FF00041F204501EE00D20FCF7D0FF0F4988421B
:1050000002D041F2055015E0002523480168490807
:105010004900016000212000FEF7FFFC1F480168E5
:1050200031F0200101601E490A681E4802400A60F2
:10503000280000B232BD0000148002400024F400B9
:10504000148D0000308A0000C7B1FFFF1C0108402A
:1050500018010840608700000080552510010840B5
:105060000C010840189100000401084008010840A4
:10507000388D000080000840108E00000080AA12C9
:10508000308E00005C8D0000608F0000240108401D
:105090005C8B00007C8F000010000840400008403E
:1050A000000008400FF1FDFF3EB505000C00002098
:1050B0002800FFF763F9002802D041F201502BE0ED
:1050C0002800FFF769F9002802D041F2025023E0DE
:1050D00001A92800FFF77EF9010000B2002802D0E4
:1050E000080000B218E069462800FFF7A0F90100A7
:1050F00000B2002802D0080000B20DE001994FF480
:10510000D860414349000098B1FBF0F0401C4008D2
:1051100010F50060206000203EBD0268531C036053
:105120001170704770B493083ED0DC0712D550F868
:10513000044B50F8045B260441F8046B6FF30F0432
:1051400041F8044B2C0441F8044B2C466FF30F0438
:1051500041F8044B5B0827D050F8044B50F8045B2F
:10516000260441F8046B6FF30F0441F8044B2C0440
:1051700041F8044B2C466FF30F0441F8044B50F8F0
:10518000044B50F8045B260441F8046B6FF30F04E2
:1051900041F8044B2C0441F8044B5B1E2C466FF382
:1051A0000F0441F8044BD7D112F0030F00F009802F
:1051B00002F0030230F9023B1B0441F8043B521E8B
:1051C000F8D170BC7047FEE713F0004C03D55B428A
:1051D000524263F100039CEA210C00F0178010B5E5
:1051E000644603D34942404261F1000100F00EF8E9
:1051F000640004D34942404261F10001244203D5D6
:105200005B42524263F1000310BD0000BBBBE1B141
:10521000B2F5803F80F07E80022A1ED98C46B1FB19
:10522000F2F102FB11C31B0443EA1043B3FBF2FC8F
:1052300002FB1C3380B240EA0343B3FBF2F002FBF3
:10524000103240EA0C4000237047022A05D98446F8
:10525000B0FBF2F002FB10C270474AB105D100F07A
:10526000010249085FEA30007047002200237047BE
:1052700000F05ABE0B00020000210020704790424F
:1052800071EB030CF6D3B3F5803F2FD2F0B5B3FA30
:1052900083F7B1FA81F4A7F10F0E3D1B5340CEF115
:1052A000200602FA0EF2F3415340B5F10F0746D83B
:1052B0000F3C2C444140C4F12006A040F141414044
:1052C000B1FBF3F603FB1611A2FB0645001BA94137
:1052D00002D2761E8018594180EA010221FA0EF3AB
:1052E00062FA0EF200215A403046F0BD30B4B1FBF4
:1052F000F3FC03FB1C11A2FB0C45001BA94103D2CC
:10530000ACF1010C8018594130BC02460B46604696
:1053100000217047B2F1807F65D3F0B5B2FA82F711
:10532000B1FA81F4C7F10F063D1B22FA06F307F12B
:10533000110EF24120355A40B5F10F07B8D941405E
:10534000C4F12006A040F1414140B1FBF3FC03FB56
:105350001C11A2FB0C45001BA94103D2BCF1010C9E
:10536000801859410F2F12D30F3FC90341EA504112
:10537000B1FBF3F603FB1611A2FB0645D4EBC030DC
:10538000A94102D2761E8018594146EACC3C07B3A7
:105390004140C7F12006B840F1414140B1FBF3F66E
:1053A00003FB1611A2FB0645001BA94102D2761E83
:1053B0008018594180EA010221FA0EF3C7F1200456
:1053C00062FA0EF20CFA07F05A402CFA04F130435C
:1053D000F0BD80EA010221FA0EF3002162FA0EF21A
:1053E00060465A40F0BD8C46B1FBF2F102FB11C39E
:1053F0001B0243EA1063B3FBF2FC02FB1C331B02EB
:105400004CEA002043EA1063B3FBF2FC02FB1C33BE
:105410001B024CEA002043EA1063B3FBF2FC02FBE0
:105420001C331B024CEA002043EA1063B3FBF2FC7E
:1054300002FB1C324CEA0020002370470CB430B54C
:1054400083B00A4606A902910446002501940095FE
:1054500002AB01A9084878441E3000F067FD019AAC
:10546000157000284EBF04460198041B204603B067
:1054700030BC5DF80CFB00BFA3FCFFFF00F1010393
:10548000810704D010F8011B820781B1FAD10268AC
:10549000A2F10131914311F0803104BF50F8042F83
:1054A000F6E709BAB1FA81F100EBD100401CC01A4D
:1054B0007047FEE72DE9F44F8AB080460F46960804
:1054C00000F0948058F8042B58F8041B58F804ABEB
:1054D000D317A2FB024558F8040B02FB035503FB4C
:1054E0000255CDE90845CB17A1FB014501FB03554A
:1054F00003FB01554FEAEA71AAFB0A230AFB0133B9
:1055000001FB0A3392469B46C117A0FB002300FB18
:10551000013301FB0033CDE90645CDE9042358F8FA
:10552000040B0290212258F8044B58F8040B019008
:1055300058F8040B0090DDE9080101F0CBFC0546AA
:10554000DDE90601212201F0C5FC4019394601F0D0
:10555000D3FC50465946212201F0BCFC8146DDE9CE
:105560000401212201F0B6FC3D1D4844294601F00A
:10557000C3FC029AD317A2FB020102FB031103FB37
:105580000211212201F0A6FC8146E517A4FB0401CB
:1055900004FB051105FB0411212201F09BFC07F11E
:1055A000080A4844514601F0A7FC019AD317A2FB10
:1055B000020102FB031103FB0211212201F08AFC0C
:1055C000009C8146E517A4FB040104FB051105FBC3
:1055D0000411212201F07EFC07F10C0A48445146D7
:1055E00001F08AFC1037761E7FF46CAF0A9810F039
:1055F000030F21D000F0030658F8042BD317A2FBA9
:10560000020102FB031103FB0211212201F062FCE3
:1056100058F8044B8146E517A4FB040104FB05116F
:1056200005FB0411212201F055FC4844394601F0E4
:1056300063FC3F1D761EDFD10BB0BDE8F08FFEE7A7
:10564000A9B1B1FA81F241409040C2F12002D141AA
:10565000414002F21D424FEA025C42054FEAD0206F
:1056600072F1004250EB41504CEBD121704748B1F0
:10567000B0FA80F29040C4F2D011A1EB025202EBDA
:10568000D02140057047FEE770B44FF0004591EA25
:10569000030F41F1D1846B40841A71EB030604D2ED
:1056A0006E40001BB141121973414FF4001C1CEBFA
:1056B000410F34BF7CEB430683E00C0DA4EB135683
:1056C000362E00F37C80012E45EAC32341DC43EAF9
:1056D000525312BFD20292025B08240545EAC1214F
:1056E00041EA5051D2EBC020994125D407D1B0FAFC
:1056F00080F610FA06F162D00020203608E0B1FAF8
:1057000081F6B140C6F1200220FA02F21143B04006
:105710004FEAF474B4EB465434F001064FEA7404D3
:105720000AD8D6F50016760D04F00044F04061FA70
:1057300006F25040F1404840C00A40EA415021F092
:10574000004128BF5FEA500550F1000044EBD12131
:1057500035E0DB0A45EAC121C90AB6F120050EDDB4
:1057600042EA0242120CC5F1200603FA06F6EB40AB
:1057700042EA06056D42984161F100010DE062FACE
:1057800006F5F240554063FA06FC82EA0C02F3404B
:105790005A406D42904161EB030111F4801F05D125
:1057A000641E620502D06D004041494121F4801120
:1057B000430875F1004350F1000041EB045170BC07
:1057C00070471CEB410F15D223F0004352EA430609
:1057D0000BD04FEA4C0CBCEB410F04D80C0D661EED
:1057E000342EB7DDEBE7801A994150EA410608BF35
:1057F0000021E4E708BF1CEB430F28BF6FF0000156
:10580000DDE7FEE7400D491840EA81200CD2490D42
:10581000A1F58061491C40F0004005DBD1F11F017A
:1058200054BFC840C017704700207047012210F0D5
:105830001F018A40DFF8981140B2400941F820204A
:105840007047012210F01F018A40DFF8881140B232
:10585000400941F82020704738B502000C00DFF8FD
:1058600078111300DBB20320434301EB0305002052
:1058700020600120A870002028701000C0B200280D
:1058800002D040F6031032E02878002802D040F61B
:1058900001102CE0DFF844010088C00615D4DFF8C1
:1058A00040110888800610D4DFF83831D2B20620C3
:1058B000424303EB02000288DFF82C311A80428851
:1058C0000A808088DFF8241108800A20687095F922
:1058D0000100FFF7ABFF012028702560280000F0D1
:1058E0004FF8002802D040F6051000E0002032BD3D
:1058F00010B50400DFF8E000A04202D040F602102C
:105900000EE02078012802D040F6071008E094F954
:105910000100FFF796FF002060700020207000203B
:1059200010BD2D4A824202D040F6021027E00278D4
:10593000012A02D040F6071021E0807800280ED01E
:105940002648008810F00E0FFAD172B6C9B20029AD
:105950000DD02348018851F0600101800DE01F48FF
:10596000008810F00E0FF0D040F6081007E01C4938
:105970000A884FF6DF7002400A8062B60020704746
:105980001549814202D040F6021012E00178012947
:1059900002D040F607100CE0807800280AD00F48AB
:1059A000008810F00E0FFAD14CF6CC401049088058
:1059B000002070470948008810F00E0FF4D040F620
:1059C0000810F6E780B50448FFF7DAFF01BD0000D4
:1059D00000E100E080E100E0880700209825004019
:1059E00088250040849200008025004090250040DA
:1059F0008C2500400EB4C0B5024603A800210190DA
:105A0000009101AB0121044878440C3000F08EFA7B
:105A100006BC5DF810FB00BF8536000001F076BBC8
:105A200062B38B0708D0521E11F8013B00F8013B0E
:105A300000F024808B07F6D1830740F0208000BF60
:105A4000103A07D330B4B1E83810103AA0E8381053
:105A5000F9D230BC530724BFB1E80810A0E8081001
:105A600044BF51F8043B40F8043BD20724BF31F84F
:105A7000022B20F8022B44BF0B7803707047121FD3
:105A800017D35B0009D151F8043B20F8023B1B0CF3
:105A9000121F20F8023BF6D20BE051F8043B00F84D
:105AA000013B1B0A20F8023B1B0C121F00F8013BB4
:105AB000F3D238BF121D521E24BF11F8013B00F86B
:105AC000013BF8D87047FEE7F0B401228240C0B233
:105AD000102802DB41F203207CE0DFF8F83318687D
:105AE0004068104202D041F2022073E072B6DFF843
:105AF000E803046854F00104046062B61868007892
:105B0000002852D1002020E0DFF8D043002526688D
:105B10000701F5510025266807013E447560002500
:105B2000246806013444A560DFF8B44300252668E4
:105B30000701F5510025266807013E4475600025E0
:105B4000246806013444A560401C1028DCDBDFF823
:105B50008C030068DFF88C4320600020DFF8884366
:105B600020600020DFF8844320600020DFF88043BD
:105B700020600020DFF87C4320600020DFF87843BD
:105B800020600020DFF8744320600020DFF87043BD
:105B900020604FF6FF70DFF86C432060FF20DFF8D5
:105BA0006843206001201C682070C9B2002902D01F
:105BB000012911D018E072B6DFF8480301681143DB
:105BC000016062B672B618684068024318684260A5
:105BD00062B60020F0BC704772B6DFF8240301689B
:105BE0001143016062B6EDE741F20A20F2E7DFF807
:105BF000E4120A681278012A02D041F2012022E060
:105C00000200D2B2102A02DB41F203201BE00A6834
:105C10005268C240D20717D572B60A68526801238B
:105C200013FA00F032EA00000A68506062B60868B1
:105C30004068002806D10020DFF89C221060002078
:105C4000096808700020704741F20120FBE738B571
:105C50000500DFF8804220680078012802D041F278
:105C600001208FE0280000F0C2F8010000B20028F7
:105C700002D0080000B285E0DFF890020068C0079B
:105C800002D441F201207DE06878002806D1DFF8D7
:105C90004C02006829780901014405E0DFF8400260
:105CA0000068297809010144A8680860E86848602C
:105CB00072B6287C0028022803D9001F022808D9C0
:105CC0000FE00A686B685B1E287C83409A180A60A4
:105CD00007E00A686B685B1E287C001F8340D21AAD
:105CE0000A60687C0028022803D9001F022808D90E
:105CF0000FE04A686B685B1E687C83409A184A60B4
:105D000007E04A686B685B1E687C001F8340D21AFC
:105D10004A6062B6687C2A7C920652EA8072A87851
:105D200052EA0062E87C52EA80326868401E52EA19
:105D30000012287D02438A600121287811FA00F0C0
:105D4000297C042903DBDFF8C811086002E0DFF8D2
:105D5000C4110860697C042903DBDFF8BC1108600A
:105D600002E0DFF8B811086021688968014203D0B9
:105D7000DFF8AC11086002E0DFF8A81108605C49A8
:105D80000860002032BD10B5040052480068007859
:105D9000012802D041F2012028E0200000F027F87D
:105DA000010000B2002802D0080000B21EE05748EF
:105DB0000068C00702D441F2012017E0474800689C
:105DC0002178090108440122217812FA01F172B602
:105DD0008268920B920363685B1E247D54EA03146D
:105DE0002243826062B642480160002010BD394AF9
:105DF000116849680378D940C90702D441F20320E9
:105E000038E0416840F20143994202D341F2072051
:105E100030E0817C002902D041F20B202AE0116899
:105E200089680278D140C9071CD5017A11F0030FA7
:105E300007D1017B11F0030F03D1017911F0030F9A
:105E400002D041F20C2015E0017C032901D0072982
:105E500005D1417C042905DB41F20C200AE041F226
:105E60000C2007E08178002903D0022913D002D347
:105E70002DE000207047017C002908D0417C0029DA
:105E800005D0017C042902D0407C042802D141F2D3
:105E90000620EFE7EDE7017C002914D0417C0029C2
:105EA00011D0017C01290ED0417C01290BD0017C4D
:105EB000042908D0417C042905D0017C052902D0A1
:105EC000407C052802D141F20620D3E7D1E741F218
:105ED0000520CFE798920000040001400000002058
:105EE000040000200800014020000140240001407F
:105EF000280001402C0001403000014034000140E6
:105F0000380001403C0001404C00014000000140CD
:105F10001008014014080140180801401C08014005
:105F200000080140040801407047FEE72DE9F14FE9
:105F3000B0B0924604910DF142013A9A2B919946E4
:105F40004A7000200AE01AF8011B0498309A904722
:105F50000028049000F0A6860D98401C0D909AF839
:105F6000000050B12528EED10021002207910892AF
:105F700009910A920B910C9204E00D9800F094BEE6
:105F800041F001011AF8010F2028F9D023280CD084
:105F90002B2804D02D2805D0302809D00BE041F063
:105FA0000201EFE741F00401ECE741F00801E9E705
:105FB00041F01001E6E72A280FD1D9F8002052F865
:105FC000040BC9F8002000280F9003D540420F9021
:105FD00041F004010AF1010A14E00F92DFF82438BD
:105FE0000AE00F98984205DA00EB800402EB4402C5
:105FF000303A0F920AF1010A9AF80020A2F130001B
:106000000A28EED39AF800002E2803D04FF0FF3272
:106010000E9229E01AF8010F2A2809D1D9F80000B8
:1060200050F8042BC9F800000E920AF1010A1BE097
:106030002D280CBF0AF1010A002000220E92DFF881
:10604000C4470BE040B90E9AA24205DA02EB820582
:1060500003EB4503303B0E930AF1010A9AF8003036
:10606000A3F130020A2AEDD3ADF84010DFF898070B
:10607000784400F294709AF8001001F04DF808B1DD
:106080001AF8010B8DF842009DF84200682805D1EE
:106090009AF8000068280CD1622106E06C2804BF41
:1060A0009AF800006C2804D171218DF842100AF191
:1060B000010A12A806901AF801BBBBF125012CD0E9
:1060C0001C3900F0CF81091F022940F2CB8113391E
:1060D00000F01385093900F0C581891E00F0A885FC
:1060E000491E00F05585491E022940F2BB81091F57
:1060F00000F04E85491F00F02881491E00F0FD8404
:10610000491E00F0D080C91E0DD0891E00F0F58414
:10611000C91E00F0F28400F096BD25238DF84830AA
:10612000012100F09BBDD9F8000050F8044BC9F8DC
:106130000000002C059440F0A3802B99487800289B
:1061400000F099804FF0FF340FF6643000F0F0FF5C
:10615000201A40F0A78500F082BD6D1E40F09985A1
:106160003096079D12AF75B1309E17F8012B02A92A
:10617000304600F063FE002801D46D1EF5D10028E2
:10618000309640F08F850A9D3020002D8DF8040058
:106190000CDD309E012301AA02A9304600F05EFE0C
:1061A000002840F07F856D1EF4D13096059F089D34
